{"contracts/DonationCampaign.sol":{"DonationCampaign":{"abi":[{"inputs":[],"stateMutability":"nonpayable","type":"constructor"},{"inputs":[],"name":"InvalidInitialization","type":"error"},{"inputs":[],"name":"NotInitializing","type":"error"},{"anonymous":false,"inputs":[{"indexed":false,"internalType":"address","name":"donor","type":"address"},{"indexed":false,"internalType":"uint256","name":"amount","type":"uint256"}],"name":"DonationReceived","type":"event"},{"anonymous":false,"inputs":[{"indexed":false,"internalType":"address","name":"owner","type":"address"},{"indexed":false,"internalType":"uint256","name":"amount","type":"uint256"}],"name":"FundsWithdrawn","type":"event"},{"anonymous":false,"inputs":[{"indexed":false,"internalType":"uint64","name":"version","type":"uint64"}],"name":"Initialized","type":"event"},{"inputs":[],"name":"donate","outputs":[],"stateMutability":"payable","type":"function"},{"inputs":[],"name":"getTransactions","outputs":[{"components":[{"internalType":"address","name":"donor","type":"address"},{"internalType":"uint256","name":"amount","type":"uint256"},{"internalType":"uint256","name":"timestamp","type":"uint256"}],"internalType":"struct DonationCampaign.Transaction[]","name":"","type":"tuple[]"}],"stateMutability":"view","type":"function"},{"inputs":[{"internalType":"string","name":"_name","type":"string"},{"internalType":"address","name":"_owner","type":"address"}],"name":"initialize","outputs":[],"stateMutability":"nonpayable","type":"function"},{"inputs":[],"name":"name","outputs":[{"internalType":"string","name":"","type":"string"}],"stateMutability":"view","type":"function"},{"inputs":[],"name":"owner","outputs":[{"internalType":"address","name":"","type":"address"}],"stateMutability":"view","type":"function"},{"inputs":[],"name":"totalDonations","outputs":[{"internalType":"uint256","name":"","type":"uint256"}],"stateMutability":"view","type":"function"},{"inputs":[{"internalType":"uint256","name":"","type":"uint256"}],"name":"transactions","outputs":[{"internalType":"address","name":"donor","type":"address"},{"internalType":"uint256","name":"amount","type":"uint256"},{"internalType":"uint256","name":"timestamp","type":"uint256"}],"stateMutability":"view","type":"function"},{"inputs":[],"name":"withdraw","outputs":[],"stateMutability":"nonpayable","type":"function"}],"evm":{"bytecode":{"linkReferences":{},"object":"608060405234801561001057600080fd5b5061001f61002460201b60201c565b61018e565b600061003461012860201b60201c565b90508060000160089054906101000a900460ff161561007f576040517ff92ee8a900000000000000000000000000000000000000000000000000000000815260040160405180910390fd5b67ffffffffffffffff80168160000160009054906101000a900467ffffffffffffffff1667ffffffffffffffff16146101255767ffffffffffffffff8160000160006101000a81548167ffffffffffffffff021916908367ffffffffffffffff1602179055507fc7f505b2f371ae2175ee4913f4499e1f2633a7b5936321eed1cdaeb6115181d267ffffffffffffffff60405161011c9190610173565b60405180910390a15b50565b60007ff0c57e16840df040f15088dc2f81fe391c3923bec73e23a9662efc9c229c6a00905090565b600067ffffffffffffffff82169050919050565b61016d81610150565b82525050565b60006020820190506101886000830184610164565b92915050565b6112e68061019d6000396000f3fe60806040526004361061007b5760003560e01c80638da5cb5b1161004e5780638da5cb5b146101165780639ace38c214610141578063de2ed89314610180578063ed88c68e146101ab5761007b565b806306fdde03146100805780633ccfd60b146100ab5780637ab4339d146100c257806383920e90146100eb575b600080fd5b34801561008c57600080fd5b506100956101b5565b6040516100a29190610908565b60405180910390f35b3480156100b757600080fd5b506100c0610243565b005b3480156100ce57600080fd5b506100e960048036038101906100e49190610ad1565b6103dc565b005b3480156100f757600080fd5b506101006105b3565b60405161010d9190610c46565b60405180910390f35b34801561012257600080fd5b5061012b61067c565b6040516101389190610c77565b60405180910390f35b34801561014d57600080fd5b5061016860048036038101906101639190610cbe565b6106a0565b60405161017793929190610cfa565b60405180910390f35b34801561018c57600080fd5b506101956106fa565b6040516101a29190610d31565b60405180910390f35b6101b3610700565b005b600180546101c290610d7b565b80601f01602080910402602001604051908101604052809291908181526020018280546101ee90610d7b565b801561023b5780601f106102105761010080835404028352916020019161023b565b820191906000526020600020905b81548152906001019060200180831161021e57829003601f168201915b505050505081565b60008054906101000a900473ffffffffffffffffffffffffffffffffffffffff1673ffffffffffffffffffffffffffffffffffffffff163373ffffffffffffffffffffffffffffffffffffffff16146102d1576040517f08c379a00000000000000000000000000000000000000000000000000000000081526004016102c890610e1e565b60405180910390fd5b600047905060008111610319576040517f08c379a000000000000000000000000000000000000000000000000000000000815260040161031090610e8a565b60405180910390fd5b60008054906101000a900473ffffffffffffffffffffffffffffffffffffffff1673ffffffffffffffffffffffffffffffffffffffff166108fc829081150290604051600060405180830381858888f1935050505015801561037f573d6000803e3d6000fd5b507feaff4b37086828766ad3268786972c0cd24259d4c87a80f9d3963a3c3d999b0d60008054906101000a900473ffffffffffffffffffffffffffffffffffffffff16826040516103d1929190610eaa565b60405180910390a150565b60006103e6610850565b905060008160000160089054906101000a900460ff1615905060008260000160009054906101000a900467ffffffffffffffff1690506000808267ffffffffffffffff161480156104345750825b9050600060018367ffffffffffffffff16148015610469575060003073ffffffffffffffffffffffffffffffffffffffff163b145b905081158015610477575080155b156104ae576040517ff92ee8a900000000000000000000000000000000000000000000000000000000815260040160405180910390fd5b60018560000160006101000a81548167ffffffffffffffff021916908367ffffffffffffffff16021790555083156104fe5760018560000160086101000a81548160ff0219169083151502179055505b866001908161050d919061107f565b50856000806101000a81548173ffffffffffffffffffffffffffffffffffffffff021916908373ffffffffffffffffffffffffffffffffffffffff16021790555083156105aa5760008560000160086101000a81548160ff0219169083151502179055507fc7f505b2f371ae2175ee4913f4499e1f2633a7b5936321eed1cdaeb6115181d260016040516105a191906111a0565b60405180910390a15b50505050505050565b60606003805480602002602001604051908101604052809291908181526020016000905b8282101561067357838290600052602060002090600302016040518060600160405290816000820160009054906101000a900473ffffffffffffffffffffffffffffffffffffffff1673ffffffffffffffffffffffffffffffffffffffff1673ffffffffffffffffffffffffffffffffffffffff16815260200160018201548152602001600282015481525050815260200190600101906105d7565b50505050905090565b60008054906101000a900473ffffffffffffffffffffffffffffffffffffffff1681565b600381815481106106b057600080fd5b90600052602060002090600302016000915090508060000160009054906101000a900473ffffffffffffffffffffffffffffffffffffffff16908060010154908060020154905083565b60025481565b60003411610743576040517f08c379a000000000000000000000000000000000000000000000000000000000815260040161073a9061122d565b60405180910390fd5b3460026000828254610755919061127c565b92505081905550600360405180606001604052803373ffffffffffffffffffffffffffffffffffffffff16815260200134815260200142815250908060018154018082558091505060019003906000526020600020906003020160009091909190915060008201518160000160006101000a81548173ffffffffffffffffffffffffffffffffffffffff021916908373ffffffffffffffffffffffffffffffffffffffff160217905550602082015181600101556040820151816002015550507f264f630d9efa0d07053a31163641d9fcc0adafc9d9e76f1c37c2ce3a558d2c523334604051610846929190610eaa565b60405180910390a1565b60007ff0c57e16840df040f15088dc2f81fe391c3923bec73e23a9662efc9c229c6a00905090565b600081519050919050565b600082825260208201905092915050565b60005b838110156108b2578082015181840152602081019050610897565b60008484015250505050565b6000601f19601f8301169050919050565b60006108da82610878565b6108e48185610883565b93506108f4818560208601610894565b6108fd816108be565b840191505092915050565b6000602082019050818103600083015261092281846108cf565b905092915050565b6000604051905090565b600080fd5b600080fd5b600080fd5b600080fd5b7f4e487b7100000000000000000000000000000000000000000000000000000000600052604160045260246000fd5b610980826108be565b810181811067ffffffffffffffff8211171561099f5761099e610948565b5b80604052505050565b60006109b261092a565b90506109be8282610977565b919050565b600067ffffffffffffffff8211156109de576109dd610948565b5b6109e7826108be565b9050602081019050919050565b82818337600083830152505050565b6000610a16610a11846109c3565b6109a8565b905082815260208101848484011115610a3257610a31610943565b5b610a3d8482856109f4565b509392505050565b600082601f830112610a5a57610a5961093e565b5b8135610a6a848260208601610a03565b91505092915050565b600073ffffffffffffffffffffffffffffffffffffffff82169050919050565b6000610a9e82610a73565b9050919050565b610aae81610a93565b8114610ab957600080fd5b50565b600081359050610acb81610aa5565b92915050565b60008060408385031215610ae857610ae7610934565b5b600083013567ffffffffffffffff811115610b0657610b05610939565b5b610b1285828601610a45565b9250506020610b2385828601610abc565b9150509250929050565b600081519050919050565b600082825260208201905092915050565b6000819050602082019050919050565b610b6281610a93565b82525050565b6000819050919050565b610b7b81610b68565b82525050565b606082016000820151610b976000850182610b59565b506020820151610baa6020850182610b72565b506040820151610bbd6040850182610b72565b50505050565b6000610bcf8383610b81565b60608301905092915050565b6000602082019050919050565b6000610bf382610b2d565b610bfd8185610b38565b9350610c0883610b49565b8060005b83811015610c39578151610c208882610bc3565b9750610c2b83610bdb565b925050600181019050610c0c565b5085935050505092915050565b60006020820190508181036000830152610c608184610be8565b905092915050565b610c7181610a93565b82525050565b6000602082019050610c8c6000830184610c68565b92915050565b610c9b81610b68565b8114610ca657600080fd5b50565b600081359050610cb881610c92565b92915050565b600060208284031215610cd457610cd3610934565b5b6000610ce284828501610ca9565b91505092915050565b610cf481610b68565b82525050565b6000606082019050610d0f6000830186610c68565b610d1c6020830185610ceb565b610d296040830184610ceb565b949350505050565b6000602082019050610d466000830184610ceb565b92915050565b7f4e487b7100000000000000000000000000000000000000000000000000000000600052602260045260246000fd5b60006002820490506001821680610d9357607f821691505b602082108103610da657610da5610d4c565b5b50919050565b7f4f6e6c7920746865206f776e65722063616e2077697468647261772066756e6460008201527f732e000000000000000000000000000000000000000000000000000000000000602082015250565b6000610e08602283610883565b9150610e1382610dac565b604082019050919050565b60006020820190508181036000830152610e3781610dfb565b9050919050565b7f4e6f2066756e647320746f207769746864726177000000000000000000000000600082015250565b6000610e74601483610883565b9150610e7f82610e3e565b602082019050919050565b60006020820190508181036000830152610ea381610e67565b9050919050565b6000604082019050610ebf6000830185610c68565b610ecc6020830184610ceb565b9392505050565b60008190508160005260206000209050919050565b60006020601f8301049050919050565b600082821b905092915050565b600060088302610f357fffffffffffffffffffffffffffffffffffffffffffffffffffffffffffffffff82610ef8565b610f3f8683610ef8565b95508019841693508086168417925050509392505050565b6000819050919050565b6000610f7c610f77610f7284610b68565b610f57565b610b68565b9050919050565b6000819050919050565b610f9683610f61565b610faa610fa282610f83565b848454610f05565b825550505050565b600090565b610fbf610fb2565b610fca818484610f8d565b505050565b5b81811015610fee57610fe3600082610fb7565b600181019050610fd0565b5050565b601f8211156110335761100481610ed3565b61100d84610ee8565b8101602085101561101c578190505b61103061102885610ee8565b830182610fcf565b50505b505050565b600082821c905092915050565b600061105660001984600802611038565b1980831691505092915050565b600061106f8383611045565b9150826002028217905092915050565b61108882610878565b67ffffffffffffffff8111156110a1576110a0610948565b5b6110ab8254610d7b565b6110b6828285610ff2565b600060209050601f8311600181146110e957600084156110d7578287015190505b6110e18582611063565b865550611149565b601f1984166110f786610ed3565b60005b8281101561111f578489015182556001820191506020850194506020810190506110fa565b8683101561113c5784890151611138601f891682611045565b8355505b6001600288020188555050505b505050505050565b6000819050919050565b600067ffffffffffffffff82169050919050565b600061118a61118561118084611151565b610f57565b61115b565b9050919050565b61119a8161116f565b82525050565b60006020820190506111b56000830184611191565b92915050565b7f446f6e6174696f6e20616d6f756e74206d75737420626520677265617465722060008201527f7468616e20302e00000000000000000000000000000000000000000000000000602082015250565b6000611217602783610883565b9150611222826111bb565b604082019050919050565b600060208201905081810360008301526112468161120a565b9050919050565b7f4e487b7100000000000000000000000000000000000000000000000000000000600052601160045260246000fd5b600061128782610b68565b915061129283610b68565b92508282019050808211156112aa576112a961124d565b5b9291505056fea264697066735822122057aa2a43ef14caafcbc26fdd13d22177dabdf4918596c7ad0d96f78cea67ebf664736f6c634300081c0033","opcodes":"PUSH1 0x80 PUSH1 0x40 MSTORE CALLVALUE DUP1 ISZERO PUSH2 0x10 JUMPI PUSH1 0x0 DUP1 REVERT JUMPDEST POP PUSH2 0x1F PUSH2 0x24 PUSH1 0x20 SHL PUSH1 0x20 SHR JUMP JUMPDEST PUSH2 0x18E JUMP JUMPDEST PUSH1 0x0 PUSH2 0x34 PUSH2 0x128 PUSH1 0x20 SHL PUSH1 0x20 SHR JUMP JUMPDEST SWAP1 POP DUP1 PUSH1 0x0 ADD PUSH1 0x8 SWAP1 SLOAD SWAP1 PUSH2 0x100 EXP SWAP1 DIV PUSH1 0xFF AND ISZERO PUSH2 0x7F JUMPI PUSH1 0x40 MLOAD PUSH32 0xF92EE8A900000000000000000000000000000000000000000000000000000000 DUP2 MSTORE PUSH1 0x4 ADD PUSH1 0x40 MLOAD DUP1 SWAP2 SUB SWAP1 REVERT JUMPDEST PUSH8 0xFFFFFFFFFFFFFFFF DUP1 AND DUP2 PUSH1 0x0 ADD PUSH1 0x0 SWAP1 SLOAD SWAP1 PUSH2 0x100 EXP SWAP1 DIV PUSH8 0xFFFFFFFFFFFFFFFF AND PUSH8 0xFFFFFFFFFFFFFFFF AND EQ PUSH2 0x125 JUMPI PUSH8 0xFFFFFFFFFFFFFFFF DUP2 PUSH1 0x0 ADD PUSH1 0x0 PUSH2 0x100 EXP DUP2 SLOAD DUP2 PUSH8 0xFFFFFFFFFFFFFFFF MUL NOT AND SWAP1 DUP4 PUSH8 0xFFFFFFFFFFFFFFFF AND MUL OR SWAP1 SSTORE POP PUSH32 0xC7F505B2F371AE2175EE4913F4499E1F2633A7B5936321EED1CDAEB6115181D2 PUSH8 0xFFFFFFFFFFFFFFFF PUSH1 0x40 MLOAD PUSH2 0x11C SWAP2 SWAP1 PUSH2 0x173 JUMP JUMPDEST PUSH1 0x40 MLOAD DUP1 SWAP2 SUB SWAP1 LOG1 JUMPDEST POP JUMP JUMPDEST PUSH1 0x0 PUSH32 0xF0C57E16840DF040F15088DC2F81FE391C3923BEC73E23A9662EFC9C229C6A00 SWAP1 POP SWAP1 JUMP JUMPDEST PUSH1 0x0 PUSH8 0xFFFFFFFFFFFFFFFF DUP3 AND SWAP1 POP SWAP2 SWAP1 POP JUMP JUMPDEST PUSH2 0x16D DUP2 PUSH2 0x150 JUMP JUMPDEST DUP3 MSTORE POP POP JUMP JUMPDEST PUSH1 0x0 PUSH1 0x20 DUP3 ADD SWAP1 POP PUSH2 0x188 PUSH1 0x0 DUP4 ADD DUP5 PUSH2 0x164 JUMP JUMPDEST SWAP3 SWAP2 POP POP JUMP JUMPDEST PUSH2 0x12E6 DUP1 PUSH2 0x19D PUSH1 0x0 CODECOPY PUSH1 0x0 RETURN INVALID PUSH1 0x80 PUSH1 0x40 MSTORE PUSH1 0x4 CALLDATASIZE LT PUSH2 0x7B JUMPI PUSH1 0x0 CALLDATALOAD PUSH1 0xE0 SHR DUP1 PUSH4 0x8DA5CB5B GT PUSH2 0x4E JUMPI DUP1 PUSH4 0x8DA5CB5B EQ PUSH2 0x116 JUMPI DUP1 PUSH4 0x9ACE38C2 EQ PUSH2 0x141 JUMPI DUP1 PUSH4 0xDE2ED893 EQ PUSH2 0x180 JUMPI DUP1 PUSH4 0xED88C68E EQ PUSH2 0x1AB JUMPI PUSH2 0x7B JUMP JUMPDEST DUP1 PUSH4 0x6FDDE03 EQ PUSH2 0x80 JUMPI DUP1 PUSH4 0x3CCFD60B EQ PUSH2 0xAB JUMPI DUP1 PUSH4 0x7AB4339D EQ PUSH2 0xC2 JUMPI DUP1 PUSH4 0x83920E90 EQ PUSH2 0xEB JUMPI JUMPDEST PUSH1 0x0 DUP1 REVERT JUMPDEST CALLVALUE DUP1 ISZERO PUSH2 0x8C JUMPI PUSH1 0x0 DUP1 REVERT JUMPDEST POP PUSH2 0x95 PUSH2 0x1B5 JUMP JUMPDEST PUSH1 0x40 MLOAD PUSH2 0xA2 SWAP2 SWAP1 PUSH2 0x908 JUMP JUMPDEST PUSH1 0x40 MLOAD DUP1 SWAP2 SUB SWAP1 RETURN JUMPDEST CALLVALUE DUP1 ISZERO PUSH2 0xB7 JUMPI PUSH1 0x0 DUP1 REVERT JUMPDEST POP PUSH2 0xC0 PUSH2 0x243 JUMP JUMPDEST STOP JUMPDEST CALLVALUE DUP1 ISZERO PUSH2 0xCE JUMPI PUSH1 0x0 DUP1 REVERT JUMPDEST POP PUSH2 0xE9 PUSH1 0x4 DUP1 CALLDATASIZE SUB DUP2 ADD SWAP1 PUSH2 0xE4 SWAP2 SWAP1 PUSH2 0xAD1 JUMP JUMPDEST PUSH2 0x3DC JUMP JUMPDEST STOP JUMPDEST CALLVALUE DUP1 ISZERO PUSH2 0xF7 JUMPI PUSH1 0x0 DUP1 REVERT JUMPDEST POP PUSH2 0x100 PUSH2 0x5B3 JUMP JUMPDEST PUSH1 0x40 MLOAD PUSH2 0x10D SWAP2 SWAP1 PUSH2 0xC46 JUMP JUMPDEST PUSH1 0x40 MLOAD DUP1 SWAP2 SUB SWAP1 RETURN JUMPDEST CALLVALUE DUP1 ISZERO PUSH2 0x122 JUMPI PUSH1 0x0 DUP1 REVERT JUMPDEST POP PUSH2 0x12B PUSH2 0x67C JUMP JUMPDEST PUSH1 0x40 MLOAD PUSH2 0x138 SWAP2 SWAP1 PUSH2 0xC77 JUMP JUMPDEST PUSH1 0x40 MLOAD DUP1 SWAP2 SUB SWAP1 RETURN JUMPDEST CALLVALUE DUP1 ISZERO PUSH2 0x14D JUMPI PUSH1 0x0 DUP1 REVERT JUMPDEST POP PUSH2 0x168 PUSH1 0x4 DUP1 CALLDATASIZE SUB DUP2 ADD SWAP1 PUSH2 0x163 SWAP2 SWAP1 PUSH2 0xCBE JUMP JUMPDEST PUSH2 0x6A0 JUMP JUMPDEST PUSH1 0x40 MLOAD PUSH2 0x177 SWAP4 SWAP3 SWAP2 SWAP1 PUSH2 0xCFA JUMP JUMPDEST PUSH1 0x40 MLOAD DUP1 SWAP2 SUB SWAP1 RETURN JUMPDEST CALLVALUE DUP1 ISZERO PUSH2 0x18C JUMPI PUSH1 0x0 DUP1 REVERT JUMPDEST POP PUSH2 0x195 PUSH2 0x6FA JUMP JUMPDEST PUSH1 0x40 MLOAD PUSH2 0x1A2 SWAP2 SWAP1 PUSH2 0xD31 JUMP JUMPDEST PUSH1 0x40 MLOAD DUP1 SWAP2 SUB SWAP1 RETURN JUMPDEST PUSH2 0x1B3 PUSH2 0x700 JUMP JUMPDEST STOP JUMPDEST PUSH1 0x1 DUP1 SLOAD PUSH2 0x1C2 SWAP1 PUSH2 0xD7B JUMP JUMPDEST DUP1 PUSH1 0x1F ADD PUSH1 0x20 DUP1 SWAP2 DIV MUL PUSH1 0x20 ADD PUSH1 0x40 MLOAD SWAP1 DUP2 ADD PUSH1 0x40 MSTORE DUP1 SWAP3 SWAP2 SWAP1 DUP2 DUP2 MSTORE PUSH1 0x20 ADD DUP3 DUP1 SLOAD PUSH2 0x1EE SWAP1 PUSH2 0xD7B JUMP JUMPDEST DUP1 ISZERO PUSH2 0x23B JUMPI DUP1 PUSH1 0x1F LT PUSH2 0x210 JUMPI PUSH2 0x100 DUP1 DUP4 SLOAD DIV MUL DUP4 MSTORE SWAP2 PUSH1 0x20 ADD SWAP2 PUSH2 0x23B JUMP JUMPDEST DUP3 ADD SWAP2 SWAP1 PUSH1 0x0 MSTORE PUSH1 0x20 PUSH1 0x0 KECCAK256 SWAP1 JUMPDEST DUP2 SLOAD DUP2 MSTORE SWAP1 PUSH1 0x1 ADD SWAP1 PUSH1 0x20 ADD DUP1 DUP4 GT PUSH2 0x21E JUMPI DUP3 SWAP1 SUB PUSH1 0x1F AND DUP3 ADD SWAP2 JUMPDEST POP POP POP POP POP DUP2 JUMP JUMPDEST PUSH1 0x0 DUP1 SLOAD SWAP1 PUSH2 0x100 EXP SWAP1 DIV PUSH20 0xFFFFFFFFFFFFFFFFFFFFFFFFFFFFFFFFFFFFFFFF AND PUSH20 0xFFFFFFFFFFFFFFFFFFFFFFFFFFFFFFFFFFFFFFFF AND CALLER PUSH20 0xFFFFFFFFFFFFFFFFFFFFFFFFFFFFFFFFFFFFFFFF AND EQ PUSH2 0x2D1 JUMPI PUSH1 0x40 MLOAD PUSH32 0x8C379A000000000000000000000000000000000000000000000000000000000 DUP2 MSTORE PUSH1 0x4 ADD PUSH2 0x2C8 SWAP1 PUSH2 0xE1E JUMP JUMPDEST PUSH1 0x40 MLOAD DUP1 SWAP2 SUB SWAP1 REVERT JUMPDEST PUSH1 0x0 SELFBALANCE SWAP1 POP PUSH1 0x0 DUP2 GT PUSH2 0x319 JUMPI PUSH1 0x40 MLOAD PUSH32 0x8C379A000000000000000000000000000000000000000000000000000000000 DUP2 MSTORE PUSH1 0x4 ADD PUSH2 0x310 SWAP1 PUSH2 0xE8A JUMP JUMPDEST PUSH1 0x40 MLOAD DUP1 SWAP2 SUB SWAP1 REVERT JUMPDEST PUSH1 0x0 DUP1 SLOAD SWAP1 PUSH2 0x100 EXP SWAP1 DIV PUSH20 0xFFFFFFFFFFFFFFFFFFFFFFFFFFFFFFFFFFFFFFFF AND PUSH20 0xFFFFFFFFFFFFFFFFFFFFFFFFFFFFFFFFFFFFFFFF AND PUSH2 0x8FC DUP3 SWAP1 DUP2 ISZERO MUL SWAP1 PUSH1 0x40 MLOAD PUSH1 0x0 PUSH1 0x40 MLOAD DUP1 DUP4 SUB DUP2 DUP6 DUP9 DUP9 CALL SWAP4 POP POP POP POP ISZERO DUP1 ISZERO PUSH2 0x37F JUMPI RETURNDATASIZE PUSH1 0x0 DUP1 RETURNDATACOPY RETURNDATASIZE PUSH1 0x0 REVERT JUMPDEST POP PUSH32 0xEAFF4B37086828766AD3268786972C0CD24259D4C87A80F9D3963A3C3D999B0D PUSH1 0x0 DUP1 SLOAD SWAP1 PUSH2 0x100 EXP SWAP1 DIV PUSH20 0xFFFFFFFFFFFFFFFFFFFFFFFFFFFFFFFFFFFFFFFF AND DUP3 PUSH1 0x40 MLOAD PUSH2 0x3D1 SWAP3 SWAP2 SWAP1 PUSH2 0xEAA JUMP JUMPDEST PUSH1 0x40 MLOAD DUP1 SWAP2 SUB SWAP1 LOG1 POP JUMP JUMPDEST PUSH1 0x0 PUSH2 0x3E6 PUSH2 0x850 JUMP JUMPDEST SWAP1 POP PUSH1 0x0 DUP2 PUSH1 0x0 ADD PUSH1 0x8 SWAP1 SLOAD SWAP1 PUSH2 0x100 EXP SWAP1 DIV PUSH1 0xFF AND ISZERO SWAP1 POP PUSH1 0x0 DUP3 PUSH1 0x0 ADD PUSH1 0x0 SWAP1 SLOAD SWAP1 PUSH2 0x100 EXP SWAP1 DIV PUSH8 0xFFFFFFFFFFFFFFFF AND SWAP1 POP PUSH1 0x0 DUP1 DUP3 PUSH8 0xFFFFFFFFFFFFFFFF AND EQ DUP1 ISZERO PUSH2 0x434 JUMPI POP DUP3 JUMPDEST SWAP1 POP PUSH1 0x0 PUSH1 0x1 DUP4 PUSH8 0xFFFFFFFFFFFFFFFF AND EQ DUP1 ISZERO PUSH2 0x469 JUMPI POP PUSH1 0x0 ADDRESS PUSH20 0xFFFFFFFFFFFFFFFFFFFFFFFFFFFFFFFFFFFFFFFF AND EXTCODESIZE EQ JUMPDEST SWAP1 POP DUP2 ISZERO DUP1 ISZERO PUSH2 0x477 JUMPI POP DUP1 ISZERO JUMPDEST ISZERO PUSH2 0x4AE JUMPI PUSH1 0x40 MLOAD PUSH32 0xF92EE8A900000000000000000000000000000000000000000000000000000000 DUP2 MSTORE PUSH1 0x4 ADD PUSH1 0x40 MLOAD DUP1 SWAP2 SUB SWAP1 REVERT JUMPDEST PUSH1 0x1 DUP6 PUSH1 0x0 ADD PUSH1 0x0 PUSH2 0x100 EXP DUP2 SLOAD DUP2 PUSH8 0xFFFFFFFFFFFFFFFF MUL NOT AND SWAP1 DUP4 PUSH8 0xFFFFFFFFFFFFFFFF AND MUL OR SWAP1 SSTORE POP DUP4 ISZERO PUSH2 0x4FE JUMPI PUSH1 0x1 DUP6 PUSH1 0x0 ADD PUSH1 0x8 PUSH2 0x100 EXP DUP2 SLOAD DUP2 PUSH1 0xFF MUL NOT AND SWAP1 DUP4 ISZERO ISZERO MUL OR SWAP1 SSTORE POP JUMPDEST DUP7 PUSH1 0x1 SWAP1 DUP2 PUSH2 0x50D SWAP2 SWAP1 PUSH2 0x107F JUMP JUMPDEST POP DUP6 PUSH1 0x0 DUP1 PUSH2 0x100 EXP DUP2 SLOAD DUP2 PUSH20 0xFFFFFFFFFFFFFFFFFFFFFFFFFFFFFFFFFFFFFFFF MUL NOT AND SWAP1 DUP4 PUSH20 0xFFFFFFFFFFFFFFFFFFFFFFFFFFFFFFFFFFFFFFFF AND MUL OR SWAP1 SSTORE POP DUP4 ISZERO PUSH2 0x5AA JUMPI PUSH1 0x0 DUP6 PUSH1 0x0 ADD PUSH1 0x8 PUSH2 0x100 EXP DUP2 SLOAD DUP2 PUSH1 0xFF MUL NOT AND SWAP1 DUP4 ISZERO ISZERO MUL OR SWAP1 SSTORE POP PUSH32 0xC7F505B2F371AE2175EE4913F4499E1F2633A7B5936321EED1CDAEB6115181D2 PUSH1 0x1 PUSH1 0x40 MLOAD PUSH2 0x5A1 SWAP2 SWAP1 PUSH2 0x11A0 JUMP JUMPDEST PUSH1 0x40 MLOAD DUP1 SWAP2 SUB SWAP1 LOG1 JUMPDEST POP POP POP POP POP POP POP JUMP JUMPDEST PUSH1 0x60 PUSH1 0x3 DUP1 SLOAD DUP1 PUSH1 0x20 MUL PUSH1 0x20 ADD PUSH1 0x40 MLOAD SWAP1 DUP2 ADD PUSH1 0x40 MSTORE DUP1 SWAP3 SWAP2 SWAP1 DUP2 DUP2 MSTORE PUSH1 0x20 ADD PUSH1 0x0 SWAP1 JUMPDEST DUP3 DUP3 LT ISZERO PUSH2 0x673 JUMPI DUP4 DUP3 SWAP1 PUSH1 0x0 MSTORE PUSH1 0x20 PUSH1 0x0 KECCAK256 SWAP1 PUSH1 0x3 MUL ADD PUSH1 0x40 MLOAD DUP1 PUSH1 0x60 ADD PUSH1 0x40 MSTORE SWAP1 DUP2 PUSH1 0x0 DUP3 ADD PUSH1 0x0 SWAP1 SLOAD SWAP1 PUSH2 0x100 EXP SWAP1 DIV PUSH20 0xFFFFFFFFFFFFFFFFFFFFFFFFFFFFFFFFFFFFFFFF AND PUSH20 0xFFFFFFFFFFFFFFFFFFFFFFFFFFFFFFFFFFFFFFFF AND PUSH20 0xFFFFFFFFFFFFFFFFFFFFFFFFFFFFFFFFFFFFFFFF AND DUP2 MSTORE PUSH1 0x20 ADD PUSH1 0x1 DUP3 ADD SLOAD DUP2 MSTORE PUSH1 0x20 ADD PUSH1 0x2 DUP3 ADD SLOAD DUP2 MSTORE POP POP DUP2 MSTORE PUSH1 0x20 ADD SWAP1 PUSH1 0x1 ADD SWAP1 PUSH2 0x5D7 JUMP JUMPDEST POP POP POP POP SWAP1 POP SWAP1 JUMP JUMPDEST PUSH1 0x0 DUP1 SLOAD SWAP1 PUSH2 0x100 EXP SWAP1 DIV PUSH20 0xFFFFFFFFFFFFFFFFFFFFFFFFFFFFFFFFFFFFFFFF AND DUP2 JUMP JUMPDEST PUSH1 0x3 DUP2 DUP2 SLOAD DUP2 LT PUSH2 0x6B0 JUMPI PUSH1 0x0 DUP1 REVERT JUMPDEST SWAP1 PUSH1 0x0 MSTORE PUSH1 0x20 PUSH1 0x0 KECCAK256 SWAP1 PUSH1 0x3 MUL ADD PUSH1 0x0 SWAP2 POP SWAP1 POP DUP1 PUSH1 0x0 ADD PUSH1 0x0 SWAP1 SLOAD SWAP1 PUSH2 0x100 EXP SWAP1 DIV PUSH20 0xFFFFFFFFFFFFFFFFFFFFFFFFFFFFFFFFFFFFFFFF AND SWAP1 DUP1 PUSH1 0x1 ADD SLOAD SWAP1 DUP1 PUSH1 0x2 ADD SLOAD SWAP1 POP DUP4 JUMP JUMPDEST PUSH1 0x2 SLOAD DUP2 JUMP JUMPDEST PUSH1 0x0 CALLVALUE GT PUSH2 0x743 JUMPI PUSH1 0x40 MLOAD PUSH32 0x8C379A000000000000000000000000000000000000000000000000000000000 DUP2 MSTORE PUSH1 0x4 ADD PUSH2 0x73A SWAP1 PUSH2 0x122D JUMP JUMPDEST PUSH1 0x40 MLOAD DUP1 SWAP2 SUB SWAP1 REVERT JUMPDEST CALLVALUE PUSH1 0x2 PUSH1 0x0 DUP3 DUP3 SLOAD PUSH2 0x755 SWAP2 SWAP1 PUSH2 0x127C JUMP JUMPDEST SWAP3 POP POP DUP2 SWAP1 SSTORE POP PUSH1 0x3 PUSH1 0x40 MLOAD DUP1 PUSH1 0x60 ADD PUSH1 0x40 MSTORE DUP1 CALLER PUSH20 0xFFFFFFFFFFFFFFFFFFFFFFFFFFFFFFFFFFFFFFFF AND DUP2 MSTORE PUSH1 0x20 ADD CALLVALUE DUP2 MSTORE PUSH1 0x20 ADD TIMESTAMP DUP2 MSTORE POP SWAP1 DUP1 PUSH1 0x1 DUP2 SLOAD ADD DUP1 DUP3 SSTORE DUP1 SWAP2 POP POP PUSH1 0x1 SWAP1 SUB SWAP1 PUSH1 0x0 MSTORE PUSH1 0x20 PUSH1 0x0 KECCAK256 SWAP1 PUSH1 0x3 MUL ADD PUSH1 0x0 SWAP1 SWAP2 SWAP1 SWAP2 SWAP1 SWAP2 POP PUSH1 0x0 DUP3 ADD MLOAD DUP2 PUSH1 0x0 ADD PUSH1 0x0 PUSH2 0x100 EXP DUP2 SLOAD DUP2 PUSH20 0xFFFFFFFFFFFFFFFFFFFFFFFFFFFFFFFFFFFFFFFF MUL NOT AND SWAP1 DUP4 PUSH20 0xFFFFFFFFFFFFFFFFFFFFFFFFFFFFFFFFFFFFFFFF AND MUL OR SWAP1 SSTORE POP PUSH1 0x20 DUP3 ADD MLOAD DUP2 PUSH1 0x1 ADD SSTORE PUSH1 0x40 DUP3 ADD MLOAD DUP2 PUSH1 0x2 ADD SSTORE POP POP PUSH32 0x264F630D9EFA0D07053A31163641D9FCC0ADAFC9D9E76F1C37C2CE3A558D2C52 CALLER CALLVALUE PUSH1 0x40 MLOAD PUSH2 0x846 SWAP3 SWAP2 SWAP1 PUSH2 0xEAA JUMP JUMPDEST PUSH1 0x40 MLOAD DUP1 SWAP2 SUB SWAP1 LOG1 JUMP JUMPDEST PUSH1 0x0 PUSH32 0xF0C57E16840DF040F15088DC2F81FE391C3923BEC73E23A9662EFC9C229C6A00 SWAP1 POP SWAP1 JUMP JUMPDEST PUSH1 0x0 DUP2 MLOAD SWAP1 POP SWAP2 SWAP1 POP JUMP JUMPDEST PUSH1 0x0 DUP3 DUP3 MSTORE PUSH1 0x20 DUP3 ADD SWAP1 POP SWAP3 SWAP2 POP POP JUMP JUMPDEST PUSH1 0x0 JUMPDEST DUP4 DUP2 LT ISZERO PUSH2 0x8B2 JUMPI DUP1 DUP3 ADD MLOAD DUP2 DUP5 ADD MSTORE PUSH1 0x20 DUP2 ADD SWAP1 POP PUSH2 0x897 JUMP JUMPDEST PUSH1 0x0 DUP5 DUP5 ADD MSTORE POP POP POP POP JUMP JUMPDEST PUSH1 0x0 PUSH1 0x1F NOT PUSH1 0x1F DUP4 ADD AND SWAP1 POP SWAP2 SWAP1 POP JUMP JUMPDEST PUSH1 0x0 PUSH2 0x8DA DUP3 PUSH2 0x878 JUMP JUMPDEST PUSH2 0x8E4 DUP2 DUP6 PUSH2 0x883 JUMP JUMPDEST SWAP4 POP PUSH2 0x8F4 DUP2 DUP6 PUSH1 0x20 DUP7 ADD PUSH2 0x894 JUMP JUMPDEST PUSH2 0x8FD DUP2 PUSH2 0x8BE JUMP JUMPDEST DUP5 ADD SWAP2 POP POP SWAP3 SWAP2 POP POP JUMP JUMPDEST PUSH1 0x0 PUSH1 0x20 DUP3 ADD SWAP1 POP DUP2 DUP2 SUB PUSH1 0x0 DUP4 ADD MSTORE PUSH2 0x922 DUP2 DUP5 PUSH2 0x8CF JUMP JUMPDEST SWAP1 POP SWAP3 SWAP2 POP POP JUMP JUMPDEST PUSH1 0x0 PUSH1 0x40 MLOAD SWAP1 POP SWAP1 JUMP JUMPDEST PUSH1 0x0 DUP1 REVERT JUMPDEST PUSH1 0x0 DUP1 REVERT JUMPDEST PUSH1 0x0 DUP1 REVERT JUMPDEST PUSH1 0x0 DUP1 REVERT JUMPDEST PUSH32 0x4E487B7100000000000000000000000000000000000000000000000000000000 PUSH1 0x0 MSTORE PUSH1 0x41 PUSH1 0x4 MSTORE PUSH1 0x24 PUSH1 0x0 REVERT JUMPDEST PUSH2 0x980 DUP3 PUSH2 0x8BE JUMP JUMPDEST DUP2 ADD DUP2 DUP2 LT PUSH8 0xFFFFFFFFFFFFFFFF DUP3 GT OR ISZERO PUSH2 0x99F JUMPI PUSH2 0x99E PUSH2 0x948 JUMP JUMPDEST JUMPDEST DUP1 PUSH1 0x40 MSTORE POP POP POP JUMP JUMPDEST PUSH1 0x0 PUSH2 0x9B2 PUSH2 0x92A JUMP JUMPDEST SWAP1 POP PUSH2 0x9BE DUP3 DUP3 PUSH2 0x977 JUMP JUMPDEST SWAP2 SWAP1 POP JUMP JUMPDEST PUSH1 0x0 PUSH8 0xFFFFFFFFFFFFFFFF DUP3 GT ISZERO PUSH2 0x9DE JUMPI PUSH2 0x9DD PUSH2 0x948 JUMP JUMPDEST JUMPDEST PUSH2 0x9E7 DUP3 PUSH2 0x8BE JUMP JUMPDEST SWAP1 POP PUSH1 0x20 DUP2 ADD SWAP1 POP SWAP2 SWAP1 POP JUMP JUMPDEST DUP3 DUP2 DUP4 CALLDATACOPY PUSH1 0x0 DUP4 DUP4 ADD MSTORE POP POP POP JUMP JUMPDEST PUSH1 0x0 PUSH2 0xA16 PUSH2 0xA11 DUP5 PUSH2 0x9C3 JUMP JUMPDEST PUSH2 0x9A8 JUMP JUMPDEST SWAP1 POP DUP3 DUP2 MSTORE PUSH1 0x20 DUP2 ADD DUP5 DUP5 DUP5 ADD GT ISZERO PUSH2 0xA32 JUMPI PUSH2 0xA31 PUSH2 0x943 JUMP JUMPDEST JUMPDEST PUSH2 0xA3D DUP5 DUP3 DUP6 PUSH2 0x9F4 JUMP JUMPDEST POP SWAP4 SWAP3 POP POP POP JUMP JUMPDEST PUSH1 0x0 DUP3 PUSH1 0x1F DUP4 ADD SLT PUSH2 0xA5A JUMPI PUSH2 0xA59 PUSH2 0x93E JUMP JUMPDEST JUMPDEST DUP2 CALLDATALOAD PUSH2 0xA6A DUP5 DUP3 PUSH1 0x20 DUP7 ADD PUSH2 0xA03 JUMP JUMPDEST SWAP2 POP POP SWAP3 SWAP2 POP POP JUMP JUMPDEST PUSH1 0x0 PUSH20 0xFFFFFFFFFFFFFFFFFFFFFFFFFFFFFFFFFFFFFFFF DUP3 AND SWAP1 POP SWAP2 SWAP1 POP JUMP JUMPDEST PUSH1 0x0 PUSH2 0xA9E DUP3 PUSH2 0xA73 JUMP JUMPDEST SWAP1 POP SWAP2 SWAP1 POP JUMP JUMPDEST PUSH2 0xAAE DUP2 PUSH2 0xA93 JUMP JUMPDEST DUP2 EQ PUSH2 0xAB9 JUMPI PUSH1 0x0 DUP1 REVERT JUMPDEST POP JUMP JUMPDEST PUSH1 0x0 DUP2 CALLDATALOAD SWAP1 POP PUSH2 0xACB DUP2 PUSH2 0xAA5 JUMP JUMPDEST SWAP3 SWAP2 POP POP JUMP JUMPDEST PUSH1 0x0 DUP1 PUSH1 0x40 DUP4 DUP6 SUB SLT ISZERO PUSH2 0xAE8 JUMPI PUSH2 0xAE7 PUSH2 0x934 JUMP JUMPDEST JUMPDEST PUSH1 0x0 DUP4 ADD CALLDATALOAD PUSH8 0xFFFFFFFFFFFFFFFF DUP2 GT ISZERO PUSH2 0xB06 JUMPI PUSH2 0xB05 PUSH2 0x939 JUMP JUMPDEST JUMPDEST PUSH2 0xB12 DUP6 DUP3 DUP7 ADD PUSH2 0xA45 JUMP JUMPDEST SWAP3 POP POP PUSH1 0x20 PUSH2 0xB23 DUP6 DUP3 DUP7 ADD PUSH2 0xABC JUMP JUMPDEST SWAP2 POP POP SWAP3 POP SWAP3 SWAP1 POP JUMP JUMPDEST PUSH1 0x0 DUP2 MLOAD SWAP1 POP SWAP2 SWAP1 POP JUMP JUMPDEST PUSH1 0x0 DUP3 DUP3 MSTORE PUSH1 0x20 DUP3 ADD SWAP1 POP SWAP3 SWAP2 POP POP JUMP JUMPDEST PUSH1 0x0 DUP2 SWAP1 POP PUSH1 0x20 DUP3 ADD SWAP1 POP SWAP2 SWAP1 POP JUMP JUMPDEST PUSH2 0xB62 DUP2 PUSH2 0xA93 JUMP JUMPDEST DUP3 MSTORE POP POP JUMP JUMPDEST PUSH1 0x0 DUP2 SWAP1 POP SWAP2 SWAP1 POP JUMP JUMPDEST PUSH2 0xB7B DUP2 PUSH2 0xB68 JUMP JUMPDEST DUP3 MSTORE POP POP JUMP JUMPDEST PUSH1 0x60 DUP3 ADD PUSH1 0x0 DUP3 ADD MLOAD PUSH2 0xB97 PUSH1 0x0 DUP6 ADD DUP3 PUSH2 0xB59 JUMP JUMPDEST POP PUSH1 0x20 DUP3 ADD MLOAD PUSH2 0xBAA PUSH1 0x20 DUP6 ADD DUP3 PUSH2 0xB72 JUMP JUMPDEST POP PUSH1 0x40 DUP3 ADD MLOAD PUSH2 0xBBD PUSH1 0x40 DUP6 ADD DUP3 PUSH2 0xB72 JUMP JUMPDEST POP POP POP POP JUMP JUMPDEST PUSH1 0x0 PUSH2 0xBCF DUP4 DUP4 PUSH2 0xB81 JUMP JUMPDEST PUSH1 0x60 DUP4 ADD SWAP1 POP SWAP3 SWAP2 POP POP JUMP JUMPDEST PUSH1 0x0 PUSH1 0x20 DUP3 ADD SWAP1 POP SWAP2 SWAP1 POP JUMP JUMPDEST PUSH1 0x0 PUSH2 0xBF3 DUP3 PUSH2 0xB2D JUMP JUMPDEST PUSH2 0xBFD DUP2 DUP6 PUSH2 0xB38 JUMP JUMPDEST SWAP4 POP PUSH2 0xC08 DUP4 PUSH2 0xB49 JUMP JUMPDEST DUP1 PUSH1 0x0 JUMPDEST DUP4 DUP2 LT ISZERO PUSH2 0xC39 JUMPI DUP2 MLOAD PUSH2 0xC20 DUP9 DUP3 PUSH2 0xBC3 JUMP JUMPDEST SWAP8 POP PUSH2 0xC2B DUP4 PUSH2 0xBDB JUMP JUMPDEST SWAP3 POP POP PUSH1 0x1 DUP2 ADD SWAP1 POP PUSH2 0xC0C JUMP JUMPDEST POP DUP6 SWAP4 POP POP POP POP SWAP3 SWAP2 POP POP JUMP JUMPDEST PUSH1 0x0 PUSH1 0x20 DUP3 ADD SWAP1 POP DUP2 DUP2 SUB PUSH1 0x0 DUP4 ADD MSTORE PUSH2 0xC60 DUP2 DUP5 PUSH2 0xBE8 JUMP JUMPDEST SWAP1 POP SWAP3 SWAP2 POP POP JUMP JUMPDEST PUSH2 0xC71 DUP2 PUSH2 0xA93 JUMP JUMPDEST DUP3 MSTORE POP POP JUMP JUMPDEST PUSH1 0x0 PUSH1 0x20 DUP3 ADD SWAP1 POP PUSH2 0xC8C PUSH1 0x0 DUP4 ADD DUP5 PUSH2 0xC68 JUMP JUMPDEST SWAP3 SWAP2 POP POP JUMP JUMPDEST PUSH2 0xC9B DUP2 PUSH2 0xB68 JUMP JUMPDEST DUP2 EQ PUSH2 0xCA6 JUMPI PUSH1 0x0 DUP1 REVERT JUMPDEST POP JUMP JUMPDEST PUSH1 0x0 DUP2 CALLDATALOAD SWAP1 POP PUSH2 0xCB8 DUP2 PUSH2 0xC92 JUMP JUMPDEST SWAP3 SWAP2 POP POP JUMP JUMPDEST PUSH1 0x0 PUSH1 0x20 DUP3 DUP5 SUB SLT ISZERO PUSH2 0xCD4 JUMPI PUSH2 0xCD3 PUSH2 0x934 JUMP JUMPDEST JUMPDEST PUSH1 0x0 PUSH2 0xCE2 DUP5 DUP3 DUP6 ADD PUSH2 0xCA9 JUMP JUMPDEST SWAP2 POP POP SWAP3 SWAP2 POP POP JUMP JUMPDEST PUSH2 0xCF4 DUP2 PUSH2 0xB68 JUMP JUMPDEST DUP3 MSTORE POP POP JUMP JUMPDEST PUSH1 0x0 PUSH1 0x60 DUP3 ADD SWAP1 POP PUSH2 0xD0F PUSH1 0x0 DUP4 ADD DUP7 PUSH2 0xC68 JUMP JUMPDEST PUSH2 0xD1C PUSH1 0x20 DUP4 ADD DUP6 PUSH2 0xCEB JUMP JUMPDEST PUSH2 0xD29 PUSH1 0x40 DUP4 ADD DUP5 PUSH2 0xCEB JUMP JUMPDEST SWAP5 SWAP4 POP POP POP POP JUMP JUMPDEST PUSH1 0x0 PUSH1 0x20 DUP3 ADD SWAP1 POP PUSH2 0xD46 PUSH1 0x0 DUP4 ADD DUP5 PUSH2 0xCEB JUMP JUMPDEST SWAP3 SWAP2 POP POP JUMP JUMPDEST PUSH32 0x4E487B7100000000000000000000000000000000000000000000000000000000 PUSH1 0x0 MSTORE PUSH1 0x22 PUSH1 0x4 MSTORE PUSH1 0x24 PUSH1 0x0 REVERT JUMPDEST PUSH1 0x0 PUSH1 0x2 DUP3 DIV SWAP1 POP PUSH1 0x1 DUP3 AND DUP1 PUSH2 0xD93 JUMPI PUSH1 0x7F DUP3 AND SWAP2 POP JUMPDEST PUSH1 0x20 DUP3 LT DUP2 SUB PUSH2 0xDA6 JUMPI PUSH2 0xDA5 PUSH2 0xD4C JUMP JUMPDEST JUMPDEST POP SWAP2 SWAP1 POP JUMP JUMPDEST PUSH32 0x4F6E6C7920746865206F776E65722063616E2077697468647261772066756E64 PUSH1 0x0 DUP3 ADD MSTORE PUSH32 0x732E000000000000000000000000000000000000000000000000000000000000 PUSH1 0x20 DUP3 ADD MSTORE POP JUMP JUMPDEST PUSH1 0x0 PUSH2 0xE08 PUSH1 0x22 DUP4 PUSH2 0x883 JUMP JUMPDEST SWAP2 POP PUSH2 0xE13 DUP3 PUSH2 0xDAC JUMP JUMPDEST PUSH1 0x40 DUP3 ADD SWAP1 POP SWAP2 SWAP1 POP JUMP JUMPDEST PUSH1 0x0 PUSH1 0x20 DUP3 ADD SWAP1 POP DUP2 DUP2 SUB PUSH1 0x0 DUP4 ADD MSTORE PUSH2 0xE37 DUP2 PUSH2 0xDFB JUMP JUMPDEST SWAP1 POP SWAP2 SWAP1 POP JUMP JUMPDEST PUSH32 0x4E6F2066756E647320746F207769746864726177000000000000000000000000 PUSH1 0x0 DUP3 ADD MSTORE POP JUMP JUMPDEST PUSH1 0x0 PUSH2 0xE74 PUSH1 0x14 DUP4 PUSH2 0x883 JUMP JUMPDEST SWAP2 POP PUSH2 0xE7F DUP3 PUSH2 0xE3E JUMP JUMPDEST PUSH1 0x20 DUP3 ADD SWAP1 POP SWAP2 SWAP1 POP JUMP JUMPDEST PUSH1 0x0 PUSH1 0x20 DUP3 ADD SWAP1 POP DUP2 DUP2 SUB PUSH1 0x0 DUP4 ADD MSTORE PUSH2 0xEA3 DUP2 PUSH2 0xE67 JUMP JUMPDEST SWAP1 POP SWAP2 SWAP1 POP JUMP JUMPDEST PUSH1 0x0 PUSH1 0x40 DUP3 ADD SWAP1 POP PUSH2 0xEBF PUSH1 0x0 DUP4 ADD DUP6 PUSH2 0xC68 JUMP JUMPDEST PUSH2 0xECC PUSH1 0x20 DUP4 ADD DUP5 PUSH2 0xCEB JUMP JUMPDEST SWAP4 SWAP3 POP POP POP JUMP JUMPDEST PUSH1 0x0 DUP2 SWAP1 POP DUP2 PUSH1 0x0 MSTORE PUSH1 0x20 PUSH1 0x0 KECCAK256 SWAP1 POP SWAP2 SWAP1 POP JUMP JUMPDEST PUSH1 0x0 PUSH1 0x20 PUSH1 0x1F DUP4 ADD DIV SWAP1 POP SWAP2 SWAP1 POP JUMP JUMPDEST PUSH1 0x0 DUP3 DUP3 SHL SWAP1 POP SWAP3 SWAP2 POP POP JUMP JUMPDEST PUSH1 0x0 PUSH1 0x8 DUP4 MUL PUSH2 0xF35 PUSH32 0xFFFFFFFFFFFFFFFFFFFFFFFFFFFFFFFFFFFFFFFFFFFFFFFFFFFFFFFFFFFFFFFF DUP3 PUSH2 0xEF8 JUMP JUMPDEST PUSH2 0xF3F DUP7 DUP4 PUSH2 0xEF8 JUMP JUMPDEST SWAP6 POP DUP1 NOT DUP5 AND SWAP4 POP DUP1 DUP7 AND DUP5 OR SWAP3 POP POP POP SWAP4 SWAP3 POP POP POP JUMP JUMPDEST PUSH1 0x0 DUP2 SWAP1 POP SWAP2 SWAP1 POP JUMP JUMPDEST PUSH1 0x0 PUSH2 0xF7C PUSH2 0xF77 PUSH2 0xF72 DUP5 PUSH2 0xB68 JUMP JUMPDEST PUSH2 0xF57 JUMP JUMPDEST PUSH2 0xB68 JUMP JUMPDEST SWAP1 POP SWAP2 SWAP1 POP JUMP JUMPDEST PUSH1 0x0 DUP2 SWAP1 POP SWAP2 SWAP1 POP JUMP JUMPDEST PUSH2 0xF96 DUP4 PUSH2 0xF61 JUMP JUMPDEST PUSH2 0xFAA PUSH2 0xFA2 DUP3 PUSH2 0xF83 JUMP JUMPDEST DUP5 DUP5 SLOAD PUSH2 0xF05 JUMP JUMPDEST DUP3 SSTORE POP POP POP POP JUMP JUMPDEST PUSH1 0x0 SWAP1 JUMP JUMPDEST PUSH2 0xFBF PUSH2 0xFB2 JUMP JUMPDEST PUSH2 0xFCA DUP2 DUP5 DUP5 PUSH2 0xF8D JUMP JUMPDEST POP POP POP JUMP JUMPDEST JUMPDEST DUP2 DUP2 LT ISZERO PUSH2 0xFEE JUMPI PUSH2 0xFE3 PUSH1 0x0 DUP3 PUSH2 0xFB7 JUMP JUMPDEST PUSH1 0x1 DUP2 ADD SWAP1 POP PUSH2 0xFD0 JUMP JUMPDEST POP POP JUMP JUMPDEST PUSH1 0x1F DUP3 GT ISZERO PUSH2 0x1033 JUMPI PUSH2 0x1004 DUP2 PUSH2 0xED3 JUMP JUMPDEST PUSH2 0x100D DUP5 PUSH2 0xEE8 JUMP JUMPDEST DUP2 ADD PUSH1 0x20 DUP6 LT ISZERO PUSH2 0x101C JUMPI DUP2 SWAP1 POP JUMPDEST PUSH2 0x1030 PUSH2 0x1028 DUP6 PUSH2 0xEE8 JUMP JUMPDEST DUP4 ADD DUP3 PUSH2 0xFCF JUMP JUMPDEST POP POP JUMPDEST POP POP POP JUMP JUMPDEST PUSH1 0x0 DUP3 DUP3 SHR SWAP1 POP SWAP3 SWAP2 POP POP JUMP JUMPDEST PUSH1 0x0 PUSH2 0x1056 PUSH1 0x0 NOT DUP5 PUSH1 0x8 MUL PUSH2 0x1038 JUMP JUMPDEST NOT DUP1 DUP4 AND SWAP2 POP POP SWAP3 SWAP2 POP POP JUMP JUMPDEST PUSH1 0x0 PUSH2 0x106F DUP4 DUP4 PUSH2 0x1045 JUMP JUMPDEST SWAP2 POP DUP3 PUSH1 0x2 MUL DUP3 OR SWAP1 POP SWAP3 SWAP2 POP POP JUMP JUMPDEST PUSH2 0x1088 DUP3 PUSH2 0x878 JUMP JUMPDEST PUSH8 0xFFFFFFFFFFFFFFFF DUP2 GT ISZERO PUSH2 0x10A1 JUMPI PUSH2 0x10A0 PUSH2 0x948 JUMP JUMPDEST JUMPDEST PUSH2 0x10AB DUP3 SLOAD PUSH2 0xD7B JUMP JUMPDEST PUSH2 0x10B6 DUP3 DUP3 DUP6 PUSH2 0xFF2 JUMP JUMPDEST PUSH1 0x0 PUSH1 0x20 SWAP1 POP PUSH1 0x1F DUP4 GT PUSH1 0x1 DUP2 EQ PUSH2 0x10E9 JUMPI PUSH1 0x0 DUP5 ISZERO PUSH2 0x10D7 JUMPI DUP3 DUP8 ADD MLOAD SWAP1 POP JUMPDEST PUSH2 0x10E1 DUP6 DUP3 PUSH2 0x1063 JUMP JUMPDEST DUP7 SSTORE POP PUSH2 0x1149 JUMP JUMPDEST PUSH1 0x1F NOT DUP5 AND PUSH2 0x10F7 DUP7 PUSH2 0xED3 JUMP JUMPDEST PUSH1 0x0 JUMPDEST DUP3 DUP2 LT ISZERO PUSH2 0x111F JUMPI DUP5 DUP10 ADD MLOAD DUP3 SSTORE PUSH1 0x1 DUP3 ADD SWAP2 POP PUSH1 0x20 DUP6 ADD SWAP5 POP PUSH1 0x20 DUP2 ADD SWAP1 POP PUSH2 0x10FA JUMP JUMPDEST DUP7 DUP4 LT ISZERO PUSH2 0x113C JUMPI DUP5 DUP10 ADD MLOAD PUSH2 0x1138 PUSH1 0x1F DUP10 AND DUP3 PUSH2 0x1045 JUMP JUMPDEST DUP4 SSTORE POP JUMPDEST PUSH1 0x1 PUSH1 0x2 DUP9 MUL ADD DUP9 SSTORE POP POP POP JUMPDEST POP POP POP POP POP POP JUMP JUMPDEST PUSH1 0x0 DUP2 SWAP1 POP SWAP2 SWAP1 POP JUMP JUMPDEST PUSH1 0x0 PUSH8 0xFFFFFFFFFFFFFFFF DUP3 AND SWAP1 POP SWAP2 SWAP1 POP JUMP JUMPDEST PUSH1 0x0 PUSH2 0x118A PUSH2 0x1185 PUSH2 0x1180 DUP5 PUSH2 0x1151 JUMP JUMPDEST PUSH2 0xF57 JUMP JUMPDEST PUSH2 0x115B JUMP JUMPDEST SWAP1 POP SWAP2 SWAP1 POP JUMP JUMPDEST PUSH2 0x119A DUP2 PUSH2 0x116F JUMP JUMPDEST DUP3 MSTORE POP POP JUMP JUMPDEST PUSH1 0x0 PUSH1 0x20 DUP3 ADD SWAP1 POP PUSH2 0x11B5 PUSH1 0x0 DUP4 ADD DUP5 PUSH2 0x1191 JUMP JUMPDEST SWAP3 SWAP2 POP POP JUMP JUMPDEST PUSH32 0x446F6E6174696F6E20616D6F756E74206D757374206265206772656174657220 PUSH1 0x0 DUP3 ADD MSTORE PUSH32 0x7468616E20302E00000000000000000000000000000000000000000000000000 PUSH1 0x20 DUP3 ADD MSTORE POP JUMP JUMPDEST PUSH1 0x0 PUSH2 0x1217 PUSH1 0x27 DUP4 PUSH2 0x883 JUMP JUMPDEST SWAP2 POP PUSH2 0x1222 DUP3 PUSH2 0x11BB JUMP JUMPDEST PUSH1 0x40 DUP3 ADD SWAP1 POP SWAP2 SWAP1 POP JUMP JUMPDEST PUSH1 0x0 PUSH1 0x20 DUP3 ADD SWAP1 POP DUP2 DUP2 SUB PUSH1 0x0 DUP4 ADD MSTORE PUSH2 0x1246 DUP2 PUSH2 0x120A JUMP JUMPDEST SWAP1 POP SWAP2 SWAP1 POP JUMP JUMPDEST PUSH32 0x4E487B7100000000000000000000000000000000000000000000000000000000 PUSH1 0x0 MSTORE PUSH1 0x11 PUSH1 0x4 MSTORE PUSH1 0x24 PUSH1 0x0 REVERT JUMPDEST PUSH1 0x0 PUSH2 0x1287 DUP3 PUSH2 0xB68 JUMP JUMPDEST SWAP2 POP PUSH2 0x1292 DUP4 PUSH2 0xB68 JUMP JUMPDEST SWAP3 POP DUP3 DUP3 ADD SWAP1 POP DUP1 DUP3 GT ISZERO PUSH2 0x12AA JUMPI PUSH2 0x12A9 PUSH2 0x124D JUMP JUMPDEST JUMPDEST SWAP3 SWAP2 POP POP JUMP INVALID LOG2 PUSH5 0x6970667358 0x22 SLT KECCAK256 JUMPI 0xAA 0x2A NUMBER 0xEF EQ 0xCA 0xAF 0xCB 0xC2 PUSH16 0xDD13D22177DABDF4918596C7AD0D96F7 DUP13 0xEA PUSH8 0xEBF664736F6C6343 STOP ADDMOD SHR STOP CALLER "},"methodIdentifiers":{"donate()":"ed88c68e","getTransactions()":"83920e90","initialize(string,address)":"7ab4339d","name()":"06fdde03","owner()":"8da5cb5b","totalDonations()":"de2ed893","transactions(uint256)":"9ace38c2","withdraw()":"3ccfd60b"}}}}}