{
  "_format": "hh-sol-artifact-1",
  "contractName": "DonationFactory",
  "sourceName": "contracts/DonationFactory.sol",
  "abi": [
    {
      "inputs": [],
      "stateMutability": "nonpayable",
      "type": "constructor"
    },
    {
      "inputs": [],
      "name": "FailedDeployment",
      "type": "error"
    },
    {
      "inputs": [
        {
          "internalType": "uint256",
          "name": "balance",
          "type": "uint256"
        },
        {
          "internalType": "uint256",
          "name": "needed",
          "type": "uint256"
        }
      ],
      "name": "InsufficientBalance",
      "type": "error"
    },
    {
      "anonymous": false,
      "inputs": [
        {
          "indexed": true,
          "internalType": "address",
          "name": "clone",
          "type": "address"
        },
        {
          "indexed": false,
          "internalType": "string",
          "name": "name",
          "type": "string"
        },
        {
          "indexed": false,
          "internalType": "address",
          "name": "owner",
          "type": "address"
        }
      ],
      "name": "CampaignCreated",
      "type": "event"
    },
    {
      "inputs": [],
      "name": "campaignImplementation",
      "outputs": [
        {
          "internalType": "address",
          "name": "",
          "type": "address"
        }
      ],
      "stateMutability": "view",
      "type": "function"
    },
    {
      "inputs": [
        {
          "internalType": "uint256",
          "name": "",
          "type": "uint256"
        }
      ],
      "name": "campaigns",
      "outputs": [
        {
          "internalType": "address",
          "name": "",
          "type": "address"
        }
      ],
      "stateMutability": "view",
      "type": "function"
    },
    {
      "inputs": [
        {
          "internalType": "string",
          "name": "name",
          "type": "string"
        }
      ],
      "name": "createCampaign",
      "outputs": [],
      "stateMutability": "nonpayable",
      "type": "function"
    },
    {
      "inputs": [],
      "name": "getCampaigns",
      "outputs": [
        {
          "internalType": "address[]",
          "name": "",
          "type": "address[]"
        }
      ],
      "stateMutability": "view",
      "type": "function"
    }
  ],
  "bytecode": "0x60a0604052348015600f57600080fd5b50604051601a90606d565b604051809103906000f0801580156035573d6000803e3d6000fd5b5073ffffffffffffffffffffffffffffffffffffffff1660808173ffffffffffffffffffffffffffffffffffffffff1681525050607a565b6114838061092283390190565b60805161088661009c6000396000818161011a01526101d101526108866000f3fe608060405234801561001057600080fd5b506004361061004c5760003560e01c8063141961bc1461005157806362a6e06514610081578063a6b036331461009f578063fdbf9ff1146100bd575b600080fd5b61006b60048036038101906100669190610471565b6100d9565b60405161007891906104df565b60405180910390f35b610089610118565b60405161009691906104df565b60405180910390f35b6100a761013c565b6040516100b491906105b8565b60405180910390f35b6100d760048036038101906100d29190610720565b6101ca565b005b600081815481106100e957600080fd5b906000526020600020016000915054906101000a900473ffffffffffffffffffffffffffffffffffffffff1681565b7f000000000000000000000000000000000000000000000000000000000000000081565b606060008054806020026020016040519081016040528092919081815260200182805480156101c057602002820191906000526020600020905b8160009054906101000a900473ffffffffffffffffffffffffffffffffffffffff1673ffffffffffffffffffffffffffffffffffffffff1681526020019060010190808311610176575b5050505050905090565b60006101f57f000000000000000000000000000000000000000000000000000000000000000061031b565b90508073ffffffffffffffffffffffffffffffffffffffff16637ab4339d83336040518363ffffffff1660e01b81526004016102329291906107e8565b600060405180830381600087803b15801561024c57600080fd5b505af1158015610260573d6000803e3d6000fd5b505050506000819080600181540180825580915050600190039060005260206000200160009091909190916101000a81548173ffffffffffffffffffffffffffffffffffffffff021916908373ffffffffffffffffffffffffffffffffffffffff1602179055508073ffffffffffffffffffffffffffffffffffffffff167f40c8f8d2aeb66a06c458c5019e334d9b3697dcef44baa17efe662d405ad99ab2833360405161030f9291906107e8565b60405180910390a25050565b600061032882600061032f565b9050919050565b6000814710156103785747826040517fcf47918100000000000000000000000000000000000000000000000000000000815260040161036f929190610827565b60405180910390fd5b763d602d80600a3d3981f3363d3d373d3d3d363d730000008360601b60e81c176000526e5af43d82803e903d91602b57fd5bf38360781b176020526037600983f09050600073ffffffffffffffffffffffffffffffffffffffff168173ffffffffffffffffffffffffffffffffffffffff1603610421576040517fb06ebf3d00000000000000000000000000000000000000000000000000000000815260040160405180910390fd5b92915050565b6000604051905090565b600080fd5b600080fd5b6000819050919050565b61044e8161043b565b811461045957600080fd5b50565b60008135905061046b81610445565b92915050565b60006020828403121561048757610486610431565b5b60006104958482850161045c565b91505092915050565b600073ffffffffffffffffffffffffffffffffffffffff82169050919050565b60006104c98261049e565b9050919050565b6104d9816104be565b82525050565b60006020820190506104f460008301846104d0565b92915050565b600081519050919050565b600082825260208201905092915050565b6000819050602082019050919050565b61052f816104be565b82525050565b60006105418383610526565b60208301905092915050565b6000602082019050919050565b6000610565826104fa565b61056f8185610505565b935061057a83610516565b8060005b838110156105ab5781516105928882610535565b975061059d8361054d565b92505060018101905061057e565b5085935050505092915050565b600060208201905081810360008301526105d2818461055a565b905092915050565b600080fd5b600080fd5b6000601f19601f8301169050919050565b7f4e487b7100000000000000000000000000000000000000000000000000000000600052604160045260246000fd5b61062d826105e4565b810181811067ffffffffffffffff8211171561064c5761064b6105f5565b5b80604052505050565b600061065f610427565b905061066b8282610624565b919050565b600067ffffffffffffffff82111561068b5761068a6105f5565b5b610694826105e4565b9050602081019050919050565b82818337600083830152505050565b60006106c36106be84610670565b610655565b9050828152602081018484840111156106df576106de6105df565b5b6106ea8482856106a1565b509392505050565b600082601f830112610707576107066105da565b5b81356107178482602086016106b0565b91505092915050565b60006020828403121561073657610735610431565b5b600082013567ffffffffffffffff81111561075457610753610436565b5b610760848285016106f2565b91505092915050565b600081519050919050565b600082825260208201905092915050565b60005b838110156107a3578082015181840152602081019050610788565b60008484015250505050565b60006107ba82610769565b6107c48185610774565b93506107d4818560208601610785565b6107dd816105e4565b840191505092915050565b6000604082019050818103600083015261080281856107af565b905061081160208301846104d0565b9392505050565b6108218161043b565b82525050565b600060408201905061083c6000830185610818565b6108496020830184610818565b939250505056fea2646970667358221220e8d0762a78658d6e506c9bb2dab2489188b5c4cd6081279ec7e6b30f03a558f264736f6c634300081c0033608060405234801561001057600080fd5b5061001f61002460201b60201c565b61018e565b600061003461012860201b60201c565b90508060000160089054906101000a900460ff161561007f576040517ff92ee8a900000000000000000000000000000000000000000000000000000000815260040160405180910390fd5b67ffffffffffffffff80168160000160009054906101000a900467ffffffffffffffff1667ffffffffffffffff16146101255767ffffffffffffffff8160000160006101000a81548167ffffffffffffffff021916908367ffffffffffffffff1602179055507fc7f505b2f371ae2175ee4913f4499e1f2633a7b5936321eed1cdaeb6115181d267ffffffffffffffff60405161011c9190610173565b60405180910390a15b50565b60007ff0c57e16840df040f15088dc2f81fe391c3923bec73e23a9662efc9c229c6a00905090565b600067ffffffffffffffff82169050919050565b61016d81610150565b82525050565b60006020820190506101886000830184610164565b92915050565b6112e68061019d6000396000f3fe60806040526004361061007b5760003560e01c80638da5cb5b1161004e5780638da5cb5b146101165780639ace38c214610141578063de2ed89314610180578063ed88c68e146101ab5761007b565b806306fdde03146100805780633ccfd60b146100ab5780637ab4339d146100c257806383920e90146100eb575b600080fd5b34801561008c57600080fd5b506100956101b5565b6040516100a29190610908565b60405180910390f35b3480156100b757600080fd5b506100c0610243565b005b3480156100ce57600080fd5b506100e960048036038101906100e49190610ad1565b6103dc565b005b3480156100f757600080fd5b506101006105b3565b60405161010d9190610c46565b60405180910390f35b34801561012257600080fd5b5061012b61067c565b6040516101389190610c77565b60405180910390f35b34801561014d57600080fd5b5061016860048036038101906101639190610cbe565b6106a0565b60405161017793929190610cfa565b60405180910390f35b34801561018c57600080fd5b506101956106fa565b6040516101a29190610d31565b60405180910390f35b6101b3610700565b005b600180546101c290610d7b565b80601f01602080910402602001604051908101604052809291908181526020018280546101ee90610d7b565b801561023b5780601f106102105761010080835404028352916020019161023b565b820191906000526020600020905b81548152906001019060200180831161021e57829003601f168201915b505050505081565b60008054906101000a900473ffffffffffffffffffffffffffffffffffffffff1673ffffffffffffffffffffffffffffffffffffffff163373ffffffffffffffffffffffffffffffffffffffff16146102d1576040517f08c379a00000000000000000000000000000000000000000000000000000000081526004016102c890610e1e565b60405180910390fd5b600047905060008111610319576040517f08c379a000000000000000000000000000000000000000000000000000000000815260040161031090610e8a565b60405180910390fd5b60008054906101000a900473ffffffffffffffffffffffffffffffffffffffff1673ffffffffffffffffffffffffffffffffffffffff166108fc829081150290604051600060405180830381858888f1935050505015801561037f573d6000803e3d6000fd5b507feaff4b37086828766ad3268786972c0cd24259d4c87a80f9d3963a3c3d999b0d60008054906101000a900473ffffffffffffffffffffffffffffffffffffffff16826040516103d1929190610eaa565b60405180910390a150565b60006103e6610850565b905060008160000160089054906101000a900460ff1615905060008260000160009054906101000a900467ffffffffffffffff1690506000808267ffffffffffffffff161480156104345750825b9050600060018367ffffffffffffffff16148015610469575060003073ffffffffffffffffffffffffffffffffffffffff163b145b905081158015610477575080155b156104ae576040517ff92ee8a900000000000000000000000000000000000000000000000000000000815260040160405180910390fd5b60018560000160006101000a81548167ffffffffffffffff021916908367ffffffffffffffff16021790555083156104fe5760018560000160086101000a81548160ff0219169083151502179055505b866001908161050d919061107f565b50856000806101000a81548173ffffffffffffffffffffffffffffffffffffffff021916908373ffffffffffffffffffffffffffffffffffffffff16021790555083156105aa5760008560000160086101000a81548160ff0219169083151502179055507fc7f505b2f371ae2175ee4913f4499e1f2633a7b5936321eed1cdaeb6115181d260016040516105a191906111a0565b60405180910390a15b50505050505050565b60606003805480602002602001604051908101604052809291908181526020016000905b8282101561067357838290600052602060002090600302016040518060600160405290816000820160009054906101000a900473ffffffffffffffffffffffffffffffffffffffff1673ffffffffffffffffffffffffffffffffffffffff1673ffffffffffffffffffffffffffffffffffffffff16815260200160018201548152602001600282015481525050815260200190600101906105d7565b50505050905090565b60008054906101000a900473ffffffffffffffffffffffffffffffffffffffff1681565b600381815481106106b057600080fd5b90600052602060002090600302016000915090508060000160009054906101000a900473ffffffffffffffffffffffffffffffffffffffff16908060010154908060020154905083565b60025481565b60003411610743576040517f08c379a000000000000000000000000000000000000000000000000000000000815260040161073a9061122d565b60405180910390fd5b3460026000828254610755919061127c565b92505081905550600360405180606001604052803373ffffffffffffffffffffffffffffffffffffffff16815260200134815260200142815250908060018154018082558091505060019003906000526020600020906003020160009091909190915060008201518160000160006101000a81548173ffffffffffffffffffffffffffffffffffffffff021916908373ffffffffffffffffffffffffffffffffffffffff160217905550602082015181600101556040820151816002015550507f264f630d9efa0d07053a31163641d9fcc0adafc9d9e76f1c37c2ce3a558d2c523334604051610846929190610eaa565b60405180910390a1565b60007ff0c57e16840df040f15088dc2f81fe391c3923bec73e23a9662efc9c229c6a00905090565b600081519050919050565b600082825260208201905092915050565b60005b838110156108b2578082015181840152602081019050610897565b60008484015250505050565b6000601f19601f8301169050919050565b60006108da82610878565b6108e48185610883565b93506108f4818560208601610894565b6108fd816108be565b840191505092915050565b6000602082019050818103600083015261092281846108cf565b905092915050565b6000604051905090565b600080fd5b600080fd5b600080fd5b600080fd5b7f4e487b7100000000000000000000000000000000000000000000000000000000600052604160045260246000fd5b610980826108be565b810181811067ffffffffffffffff8211171561099f5761099e610948565b5b80604052505050565b60006109b261092a565b90506109be8282610977565b919050565b600067ffffffffffffffff8211156109de576109dd610948565b5b6109e7826108be565b9050602081019050919050565b82818337600083830152505050565b6000610a16610a11846109c3565b6109a8565b905082815260208101848484011115610a3257610a31610943565b5b610a3d8482856109f4565b509392505050565b600082601f830112610a5a57610a5961093e565b5b8135610a6a848260208601610a03565b91505092915050565b600073ffffffffffffffffffffffffffffffffffffffff82169050919050565b6000610a9e82610a73565b9050919050565b610aae81610a93565b8114610ab957600080fd5b50565b600081359050610acb81610aa5565b92915050565b60008060408385031215610ae857610ae7610934565b5b600083013567ffffffffffffffff811115610b0657610b05610939565b5b610b1285828601610a45565b9250506020610b2385828601610abc565b9150509250929050565b600081519050919050565b600082825260208201905092915050565b6000819050602082019050919050565b610b6281610a93565b82525050565b6000819050919050565b610b7b81610b68565b82525050565b606082016000820151610b976000850182610b59565b506020820151610baa6020850182610b72565b506040820151610bbd6040850182610b72565b50505050565b6000610bcf8383610b81565b60608301905092915050565b6000602082019050919050565b6000610bf382610b2d565b610bfd8185610b38565b9350610c0883610b49565b8060005b83811015610c39578151610c208882610bc3565b9750610c2b83610bdb565b925050600181019050610c0c565b5085935050505092915050565b60006020820190508181036000830152610c608184610be8565b905092915050565b610c7181610a93565b82525050565b6000602082019050610c8c6000830184610c68565b92915050565b610c9b81610b68565b8114610ca657600080fd5b50565b600081359050610cb881610c92565b92915050565b600060208284031215610cd457610cd3610934565b5b6000610ce284828501610ca9565b91505092915050565b610cf481610b68565b82525050565b6000606082019050610d0f6000830186610c68565b610d1c6020830185610ceb565b610d296040830184610ceb565b949350505050565b6000602082019050610d466000830184610ceb565b92915050565b7f4e487b7100000000000000000000000000000000000000000000000000000000600052602260045260246000fd5b60006002820490506001821680610d9357607f821691505b602082108103610da657610da5610d4c565b5b50919050565b7f4f6e6c7920746865206f776e65722063616e2077697468647261772066756e6460008201527f732e000000000000000000000000000000000000000000000000000000000000602082015250565b6000610e08602283610883565b9150610e1382610dac565b604082019050919050565b60006020820190508181036000830152610e3781610dfb565b9050919050565b7f4e6f2066756e647320746f207769746864726177000000000000000000000000600082015250565b6000610e74601483610883565b9150610e7f82610e3e565b602082019050919050565b60006020820190508181036000830152610ea381610e67565b9050919050565b6000604082019050610ebf6000830185610c68565b610ecc6020830184610ceb565b9392505050565b60008190508160005260206000209050919050565b60006020601f8301049050919050565b600082821b905092915050565b600060088302610f357fffffffffffffffffffffffffffffffffffffffffffffffffffffffffffffffff82610ef8565b610f3f8683610ef8565b95508019841693508086168417925050509392505050565b6000819050919050565b6000610f7c610f77610f7284610b68565b610f57565b610b68565b9050919050565b6000819050919050565b610f9683610f61565b610faa610fa282610f83565b848454610f05565b825550505050565b600090565b610fbf610fb2565b610fca818484610f8d565b505050565b5b81811015610fee57610fe3600082610fb7565b600181019050610fd0565b5050565b601f8211156110335761100481610ed3565b61100d84610ee8565b8101602085101561101c578190505b61103061102885610ee8565b830182610fcf565b50505b505050565b600082821c905092915050565b600061105660001984600802611038565b1980831691505092915050565b600061106f8383611045565b9150826002028217905092915050565b61108882610878565b67ffffffffffffffff8111156110a1576110a0610948565b5b6110ab8254610d7b565b6110b6828285610ff2565b600060209050601f8311600181146110e957600084156110d7578287015190505b6110e18582611063565b865550611149565b601f1984166110f786610ed3565b60005b8281101561111f578489015182556001820191506020850194506020810190506110fa565b8683101561113c5784890151611138601f891682611045565b8355505b6001600288020188555050505b505050505050565b6000819050919050565b600067ffffffffffffffff82169050919050565b600061118a61118561118084611151565b610f57565b61115b565b9050919050565b61119a8161116f565b82525050565b60006020820190506111b56000830184611191565b92915050565b7f446f6e6174696f6e20616d6f756e74206d75737420626520677265617465722060008201527f7468616e20302e00000000000000000000000000000000000000000000000000602082015250565b6000611217602783610883565b9150611222826111bb565b604082019050919050565b600060208201905081810360008301526112468161120a565b9050919050565b7f4e487b7100000000000000000000000000000000000000000000000000000000600052601160045260246000fd5b600061128782610b68565b915061129283610b68565b92508282019050808211156112aa576112a961124d565b5b9291505056fea264697066735822122057aa2a43ef14caafcbc26fdd13d22177dabdf4918596c7ad0d96f78cea67ebf664736f6c634300081c0033",
  "linkReferences": {},
  "deployedLinkReferences": {}
}