{
  "_format": "hh-sol-artifact-1",
  "contractName": "DonationFactory",
  "sourceName": "contracts/DonationFactory.sol",
  "abi": [
    {
      "inputs": [],
      "stateMutability": "nonpayable",
      "type": "constructor"
    },
    {
      "inputs": [],
      "name": "FailedDeployment",
      "type": "error"
    },
    {
      "inputs": [
        {
          "internalType": "uint256",
          "name": "balance",
          "type": "uint256"
        },
        {
          "internalType": "uint256",
          "name": "needed",
          "type": "uint256"
        }
      ],
      "name": "InsufficientBalance",
      "type": "error"
    },
    {
      "anonymous": false,
      "inputs": [
        {
          "indexed": true,
          "internalType": "address",
          "name": "clone",
          "type": "address"
        },
        {
          "indexed": false,
          "internalType": "string",
          "name": "name",
          "type": "string"
        },
        {
          "indexed": false,
          "internalType": "address",
          "name": "owner",
          "type": "address"
        }
      ],
      "name": "CampaignCreated",
      "type": "event"
    },
    {
      "inputs": [],
      "name": "campaignImplementation",
      "outputs": [
        {
          "internalType": "address",
          "name": "",
          "type": "address"
        }
      ],
      "stateMutability": "view",
      "type": "function"
    },
    {
      "inputs": [
        {
          "internalType": "uint256",
          "name": "",
          "type": "uint256"
        }
      ],
      "name": "campaigns",
      "outputs": [
        {
          "internalType": "address",
          "name": "",
          "type": "address"
        }
      ],
      "stateMutability": "view",
      "type": "function"
    },
    {
      "inputs": [
        {
          "internalType": "string",
          "name": "name",
          "type": "string"
        }
      ],
      "name": "createCampaign",
      "outputs": [],
      "stateMutability": "nonpayable",
      "type": "function"
    },
    {
      "inputs": [],
      "name": "getCampaigns",
      "outputs": [
        {
          "internalType": "address[]",
          "name": "",
          "type": "address[]"
        }
      ],
      "stateMutability": "view",
      "type": "function"
    }
  ],
  "bytecode": "0x60a0604052348015600f57600080fd5b50604051601a90606d565b604051809103906000f0801580156035573d6000803e3d6000fd5b5073ffffffffffffffffffffffffffffffffffffffff1660808173ffffffffffffffffffffffffffffffffffffffff1681525050607a565b6117c68061092283390190565b60805161088661009c6000396000818161011a01526101d101526108866000f3fe608060405234801561001057600080fd5b506004361061004c5760003560e01c8063141961bc1461005157806362a6e06514610081578063a6b036331461009f578063fdbf9ff1146100bd575b600080fd5b61006b60048036038101906100669190610471565b6100d9565b60405161007891906104df565b60405180910390f35b610089610118565b60405161009691906104df565b60405180910390f35b6100a761013c565b6040516100b491906105b8565b60405180910390f35b6100d760048036038101906100d29190610720565b6101ca565b005b600081815481106100e957600080fd5b906000526020600020016000915054906101000a900473ffffffffffffffffffffffffffffffffffffffff1681565b7f000000000000000000000000000000000000000000000000000000000000000081565b606060008054806020026020016040519081016040528092919081815260200182805480156101c057602002820191906000526020600020905b8160009054906101000a900473ffffffffffffffffffffffffffffffffffffffff1673ffffffffffffffffffffffffffffffffffffffff1681526020019060010190808311610176575b5050505050905090565b60006101f57f000000000000000000000000000000000000000000000000000000000000000061031b565b90508073ffffffffffffffffffffffffffffffffffffffff16637ab4339d83336040518363ffffffff1660e01b81526004016102329291906107e8565b600060405180830381600087803b15801561024c57600080fd5b505af1158015610260573d6000803e3d6000fd5b505050506000819080600181540180825580915050600190039060005260206000200160009091909190916101000a81548173ffffffffffffffffffffffffffffffffffffffff021916908373ffffffffffffffffffffffffffffffffffffffff1602179055508073ffffffffffffffffffffffffffffffffffffffff167f40c8f8d2aeb66a06c458c5019e334d9b3697dcef44baa17efe662d405ad99ab2833360405161030f9291906107e8565b60405180910390a25050565b600061032882600061032f565b9050919050565b6000814710156103785747826040517fcf47918100000000000000000000000000000000000000000000000000000000815260040161036f929190610827565b60405180910390fd5b763d602d80600a3d3981f3363d3d373d3d3d363d730000008360601b60e81c176000526e5af43d82803e903d91602b57fd5bf38360781b176020526037600983f09050600073ffffffffffffffffffffffffffffffffffffffff168173ffffffffffffffffffffffffffffffffffffffff1603610421576040517fb06ebf3d00000000000000000000000000000000000000000000000000000000815260040160405180910390fd5b92915050565b6000604051905090565b600080fd5b600080fd5b6000819050919050565b61044e8161043b565b811461045957600080fd5b50565b60008135905061046b81610445565b92915050565b60006020828403121561048757610486610431565b5b60006104958482850161045c565b91505092915050565b600073ffffffffffffffffffffffffffffffffffffffff82169050919050565b60006104c98261049e565b9050919050565b6104d9816104be565b82525050565b60006020820190506104f460008301846104d0565b92915050565b600081519050919050565b600082825260208201905092915050565b6000819050602082019050919050565b61052f816104be565b82525050565b60006105418383610526565b60208301905092915050565b6000602082019050919050565b6000610565826104fa565b61056f8185610505565b935061057a83610516565b8060005b838110156105ab5781516105928882610535565b975061059d8361054d565b92505060018101905061057e565b5085935050505092915050565b600060208201905081810360008301526105d2818461055a565b905092915050565b600080fd5b600080fd5b6000601f19601f8301169050919050565b7f4e487b7100000000000000000000000000000000000000000000000000000000600052604160045260246000fd5b61062d826105e4565b810181811067ffffffffffffffff8211171561064c5761064b6105f5565b5b80604052505050565b600061065f610427565b905061066b8282610624565b919050565b600067ffffffffffffffff82111561068b5761068a6105f5565b5b610694826105e4565b9050602081019050919050565b82818337600083830152505050565b60006106c36106be84610670565b610655565b9050828152602081018484840111156106df576106de6105df565b5b6106ea8482856106a1565b509392505050565b600082601f830112610707576107066105da565b5b81356107178482602086016106b0565b91505092915050565b60006020828403121561073657610735610431565b5b600082013567ffffffffffffffff81111561075457610753610436565b5b610760848285016106f2565b91505092915050565b600081519050919050565b600082825260208201905092915050565b60005b838110156107a3578082015181840152602081019050610788565b60008484015250505050565b60006107ba82610769565b6107c48185610774565b93506107d4818560208601610785565b6107dd816105e4565b840191505092915050565b6000604082019050818103600083015261080281856107af565b905061081160208301846104d0565b9392505050565b6108218161043b565b82525050565b600060408201905061083c6000830185610818565b6108496020830184610818565b939250505056fea26469706673582212205963cd6599bac7925bad92b27017d68e94218e19b946cf02c1001d0936f1f4ee64736f6c634300081c0033608060405234801561001057600080fd5b5061001f61002460201b60201c565b61018e565b600061003461012860201b60201c565b90508060000160089054906101000a900460ff161561007f576040517ff92ee8a900000000000000000000000000000000000000000000000000000000815260040160405180910390fd5b67ffffffffffffffff80168160000160009054906101000a900467ffffffffffffffff1667ffffffffffffffff16146101255767ffffffffffffffff8160000160006101000a81548167ffffffffffffffff021916908367ffffffffffffffff1602179055507fc7f505b2f371ae2175ee4913f4499e1f2633a7b5936321eed1cdaeb6115181d267ffffffffffffffff60405161011c9190610173565b60405180910390a15b50565b60007ff0c57e16840df040f15088dc2f81fe391c3923bec73e23a9662efc9c229c6a00905090565b600067ffffffffffffffff82169050919050565b61016d81610150565b82525050565b60006020820190506101886000830184610164565b92915050565b6116298061019d6000396000f3fe60806040526004361061007b5760003560e01c80638da5cb5b1161004e5780638da5cb5b146101165780639ace38c214610141578063de2ed89314610181578063ed88c68e146101ac5761007b565b806306fdde03146100805780633ccfd60b146100ab5780637ab4339d146100c257806383920e90146100eb575b600080fd5b34801561008c57600080fd5b506100956101b6565b6040516100a29190610ba4565b60405180910390f35b3480156100b757600080fd5b506100c0610244565b005b3480156100ce57600080fd5b506100e960048036038101906100e49190610d6d565b6104df565b005b3480156100f757600080fd5b506101006107b8565b60405161010d9190610f6c565b60405180910390f35b34801561012257600080fd5b5061012b6108bc565b6040516101389190610f9d565b60405180910390f35b34801561014d57600080fd5b5061016860048036038101906101639190610fe4565b6108e0565b604051610178949392919061102f565b60405180910390f35b34801561018d57600080fd5b5061019661094d565b6040516101a39190611074565b60405180910390f35b6101b4610953565b005b600180546101c3906110be565b80601f01602080910402602001604051908101604052809291908181526020018280546101ef906110be565b801561023c5780601f106102115761010080835404028352916020019161023c565b820191906000526020600020905b81548152906001019060200180831161021f57829003601f168201915b505050505081565b60008054906101000a900473ffffffffffffffffffffffffffffffffffffffff1673ffffffffffffffffffffffffffffffffffffffff163373ffffffffffffffffffffffffffffffffffffffff16146102d2576040517f08c379a00000000000000000000000000000000000000000000000000000000081526004016102c990611161565b60405180910390fd5b60004790506000811161031a576040517f08c379a0000000000000000000000000000000000000000000000000000000008152600401610311906111cd565b60405180910390fd5b60008054906101000a900473ffffffffffffffffffffffffffffffffffffffff1673ffffffffffffffffffffffffffffffffffffffff166108fc829081150290604051600060405180830381858888f19350505050158015610380573d6000803e3d6000fd5b50600360405180608001604052803373ffffffffffffffffffffffffffffffffffffffff168152602001838152602001428152602001600160028111156103ca576103c9610e1d565b5b815250908060018154018082558091505060019003906000526020600020906004020160009091909190915060008201518160000160006101000a81548173ffffffffffffffffffffffffffffffffffffffff021916908373ffffffffffffffffffffffffffffffffffffffff160217905550602082015181600101556040820151816002015560608201518160030160006101000a81548160ff0219169083600281111561047c5761047b610e1d565b5b021790555050507feaff4b37086828766ad3268786972c0cd24259d4c87a80f9d3963a3c3d999b0d60008054906101000a900473ffffffffffffffffffffffffffffffffffffffff16826040516104d49291906111ed565b60405180910390a150565b60006104e9610aec565b905060008160000160089054906101000a900460ff1615905060008260000160009054906101000a900467ffffffffffffffff1690506000808267ffffffffffffffff161480156105375750825b9050600060018367ffffffffffffffff1614801561056c575060003073ffffffffffffffffffffffffffffffffffffffff163b145b90508115801561057a575080155b156105b1576040517ff92ee8a900000000000000000000000000000000000000000000000000000000815260040160405180910390fd5b60018560000160006101000a81548167ffffffffffffffff021916908367ffffffffffffffff16021790555083156106015760018560000160086101000a81548160ff0219169083151502179055505b866001908161061091906113c2565b50856000806101000a81548173ffffffffffffffffffffffffffffffffffffffff021916908373ffffffffffffffffffffffffffffffffffffffff160217905550600360405180608001604052808873ffffffffffffffffffffffffffffffffffffffff1681526020016000815260200142815260200160028081111561069a57610699610e1d565b5b815250908060018154018082558091505060019003906000526020600020906004020160009091909190915060008201518160000160006101000a81548173ffffffffffffffffffffffffffffffffffffffff021916908373ffffffffffffffffffffffffffffffffffffffff160217905550602082015181600101556040820151816002015560608201518160030160006101000a81548160ff0219169083600281111561074c5761074b610e1d565b5b0217905550505083156107af5760008560000160086101000a81548160ff0219169083151502179055507fc7f505b2f371ae2175ee4913f4499e1f2633a7b5936321eed1cdaeb6115181d260016040516107a691906114e3565b60405180910390a15b50505050505050565b60606003805480602002602001604051908101604052809291908181526020016000905b828210156108b357838290600052602060002090600402016040518060800160405290816000820160009054906101000a900473ffffffffffffffffffffffffffffffffffffffff1673ffffffffffffffffffffffffffffffffffffffff1673ffffffffffffffffffffffffffffffffffffffff16815260200160018201548152602001600282015481526020016003820160009054906101000a900460ff16600281111561088e5761088d610e1d565b5b60028111156108a05761089f610e1d565b5b81525050815260200190600101906107dc565b50505050905090565b60008054906101000a900473ffffffffffffffffffffffffffffffffffffffff1681565b600381815481106108f057600080fd5b90600052602060002090600402016000915090508060000160009054906101000a900473ffffffffffffffffffffffffffffffffffffffff16908060010154908060020154908060030160009054906101000a900460ff16905084565b60025481565b60003411610996576040517f08c379a000000000000000000000000000000000000000000000000000000000815260040161098d90611570565b60405180910390fd5b34600260008282546109a891906115bf565b92505081905550600360405180608001604052803373ffffffffffffffffffffffffffffffffffffffff168152602001348152602001428152602001600060028111156109f8576109f7610e1d565b5b815250908060018154018082558091505060019003906000526020600020906004020160009091909190915060008201518160000160006101000a81548173ffffffffffffffffffffffffffffffffffffffff021916908373ffffffffffffffffffffffffffffffffffffffff160217905550602082015181600101556040820151816002015560608201518160030160006101000a81548160ff02191690836002811115610aaa57610aa9610e1d565b5b021790555050507f264f630d9efa0d07053a31163641d9fcc0adafc9d9e76f1c37c2ce3a558d2c523334604051610ae29291906111ed565b60405180910390a1565b60007ff0c57e16840df040f15088dc2f81fe391c3923bec73e23a9662efc9c229c6a00905090565b600081519050919050565b600082825260208201905092915050565b60005b83811015610b4e578082015181840152602081019050610b33565b60008484015250505050565b6000601f19601f8301169050919050565b6000610b7682610b14565b610b808185610b1f565b9350610b90818560208601610b30565b610b9981610b5a565b840191505092915050565b60006020820190508181036000830152610bbe8184610b6b565b905092915050565b6000604051905090565b600080fd5b600080fd5b600080fd5b600080fd5b7f4e487b7100000000000000000000000000000000000000000000000000000000600052604160045260246000fd5b610c1c82610b5a565b810181811067ffffffffffffffff82111715610c3b57610c3a610be4565b5b80604052505050565b6000610c4e610bc6565b9050610c5a8282610c13565b919050565b600067ffffffffffffffff821115610c7a57610c79610be4565b5b610c8382610b5a565b9050602081019050919050565b82818337600083830152505050565b6000610cb2610cad84610c5f565b610c44565b905082815260208101848484011115610cce57610ccd610bdf565b5b610cd9848285610c90565b509392505050565b600082601f830112610cf657610cf5610bda565b5b8135610d06848260208601610c9f565b91505092915050565b600073ffffffffffffffffffffffffffffffffffffffff82169050919050565b6000610d3a82610d0f565b9050919050565b610d4a81610d2f565b8114610d5557600080fd5b50565b600081359050610d6781610d41565b92915050565b60008060408385031215610d8457610d83610bd0565b5b600083013567ffffffffffffffff811115610da257610da1610bd5565b5b610dae85828601610ce1565b9250506020610dbf85828601610d58565b9150509250929050565b600081519050919050565b600082825260208201905092915050565b6000819050602082019050919050565b610dfe81610d2f565b82525050565b6000819050919050565b610e1781610e04565b82525050565b7f4e487b7100000000000000000000000000000000000000000000000000000000600052602160045260246000fd5b60038110610e5d57610e5c610e1d565b5b50565b6000819050610e6e82610e4c565b919050565b6000610e7e82610e60565b9050919050565b610e8e81610e73565b82525050565b608082016000820151610eaa6000850182610df5565b506020820151610ebd6020850182610e0e565b506040820151610ed06040850182610e0e565b506060820151610ee36060850182610e85565b50505050565b6000610ef58383610e94565b60808301905092915050565b6000602082019050919050565b6000610f1982610dc9565b610f238185610dd4565b9350610f2e83610de5565b8060005b83811015610f5f578151610f468882610ee9565b9750610f5183610f01565b925050600181019050610f32565b5085935050505092915050565b60006020820190508181036000830152610f868184610f0e565b905092915050565b610f9781610d2f565b82525050565b6000602082019050610fb26000830184610f8e565b92915050565b610fc181610e04565b8114610fcc57600080fd5b50565b600081359050610fde81610fb8565b92915050565b600060208284031215610ffa57610ff9610bd0565b5b600061100884828501610fcf565b91505092915050565b61101a81610e04565b82525050565b61102981610e73565b82525050565b60006080820190506110446000830187610f8e565b6110516020830186611011565b61105e6040830185611011565b61106b6060830184611020565b95945050505050565b60006020820190506110896000830184611011565b92915050565b7f4e487b7100000000000000000000000000000000000000000000000000000000600052602260045260246000fd5b600060028204905060018216806110d657607f821691505b6020821081036110e9576110e861108f565b5b50919050565b7f4f6e6c7920746865206f776e65722063616e2077697468647261772066756e6460008201527f732e000000000000000000000000000000000000000000000000000000000000602082015250565b600061114b602283610b1f565b9150611156826110ef565b604082019050919050565b6000602082019050818103600083015261117a8161113e565b9050919050565b7f4e6f2066756e647320746f207769746864726177000000000000000000000000600082015250565b60006111b7601483610b1f565b91506111c282611181565b602082019050919050565b600060208201905081810360008301526111e6816111aa565b9050919050565b60006040820190506112026000830185610f8e565b61120f6020830184611011565b9392505050565b60008190508160005260206000209050919050565b60006020601f8301049050919050565b600082821b905092915050565b6000600883026112787fffffffffffffffffffffffffffffffffffffffffffffffffffffffffffffffff8261123b565b611282868361123b565b95508019841693508086168417925050509392505050565b6000819050919050565b60006112bf6112ba6112b584610e04565b61129a565b610e04565b9050919050565b6000819050919050565b6112d9836112a4565b6112ed6112e5826112c6565b848454611248565b825550505050565b600090565b6113026112f5565b61130d8184846112d0565b505050565b5b81811015611331576113266000826112fa565b600181019050611313565b5050565b601f8211156113765761134781611216565b6113508461122b565b8101602085101561135f578190505b61137361136b8561122b565b830182611312565b50505b505050565b600082821c905092915050565b60006113996000198460080261137b565b1980831691505092915050565b60006113b28383611388565b9150826002028217905092915050565b6113cb82610b14565b67ffffffffffffffff8111156113e4576113e3610be4565b5b6113ee82546110be565b6113f9828285611335565b600060209050601f83116001811461142c576000841561141a578287015190505b61142485826113a6565b86555061148c565b601f19841661143a86611216565b60005b828110156114625784890151825560018201915060208501945060208101905061143d565b8683101561147f578489015161147b601f891682611388565b8355505b6001600288020188555050505b505050505050565b6000819050919050565b600067ffffffffffffffff82169050919050565b60006114cd6114c86114c384611494565b61129a565b61149e565b9050919050565b6114dd816114b2565b82525050565b60006020820190506114f860008301846114d4565b92915050565b7f446f6e6174696f6e20616d6f756e74206d75737420626520677265617465722060008201527f7468616e20302e00000000000000000000000000000000000000000000000000602082015250565b600061155a602783610b1f565b9150611565826114fe565b604082019050919050565b600060208201905081810360008301526115898161154d565b9050919050565b7f4e487b7100000000000000000000000000000000000000000000000000000000600052601160045260246000fd5b60006115ca82610e04565b91506115d583610e04565b92508282019050808211156115ed576115ec611590565b5b9291505056fea2646970667358221220f226ffdeb95cd0faaefb68b4caa4120de3d08898c1c516cefa22a0dcc97f617464736f6c634300081c0033",
  "linkReferences": {},
  "deployedLinkReferences": {}
}