{
  "_format": "hh-sol-artifact-1",
  "contractName": "DonationCampaign",
  "sourceName": "contracts/DonationCampaign.sol",
  "abi": [
    {
      "inputs": [],
      "stateMutability": "nonpayable",
      "type": "constructor"
    },
    {
      "inputs": [],
      "name": "InvalidInitialization",
      "type": "error"
    },
    {
      "inputs": [],
      "name": "NotInitializing",
      "type": "error"
    },
    {
      "anonymous": false,
      "inputs": [
        {
          "indexed": false,
          "internalType": "address",
          "name": "donor",
          "type": "address"
        },
        {
          "indexed": false,
          "internalType": "uint256",
          "name": "amount",
          "type": "uint256"
        }
      ],
      "name": "DonationReceived",
      "type": "event"
    },
    {
      "anonymous": false,
      "inputs": [
        {
          "indexed": false,
          "internalType": "address",
          "name": "owner",
          "type": "address"
        },
        {
          "indexed": false,
          "internalType": "uint256",
          "name": "amount",
          "type": "uint256"
        }
      ],
      "name": "FundsWithdrawn",
      "type": "event"
    },
    {
      "anonymous": false,
      "inputs": [
        {
          "indexed": false,
          "internalType": "uint64",
          "name": "version",
          "type": "uint64"
        }
      ],
      "name": "Initialized",
      "type": "event"
    },
    {
      "inputs": [],
      "name": "donate",
      "outputs": [],
      "stateMutability": "payable",
      "type": "function"
    },
    {
      "inputs": [
        {
          "internalType": "string",
          "name": "_name",
          "type": "string"
        },
        {
          "internalType": "address",
          "name": "_owner",
          "type": "address"
        }
      ],
      "name": "initialize",
      "outputs": [],
      "stateMutability": "nonpayable",
      "type": "function"
    },
    {
      "inputs": [],
      "name": "name",
      "outputs": [
        {
          "internalType": "string",
          "name": "",
          "type": "string"
        }
      ],
      "stateMutability": "view",
      "type": "function"
    },
    {
      "inputs": [],
      "name": "owner",
      "outputs": [
        {
          "internalType": "address",
          "name": "",
          "type": "address"
        }
      ],
      "stateMutability": "view",
      "type": "function"
    },
    {
      "inputs": [],
      "name": "totalDonations",
      "outputs": [
        {
          "internalType": "uint256",
          "name": "",
          "type": "uint256"
        }
      ],
      "stateMutability": "view",
      "type": "function"
    },
    {
      "inputs": [],
      "name": "withdraw",
      "outputs": [],
      "stateMutability": "nonpayable",
      "type": "function"
    }
  ],
  "bytecode": "0x608060405234801561001057600080fd5b5061001f61002460201b60201c565b61018e565b600061003461012860201b60201c565b90508060000160089054906101000a900460ff161561007f576040517ff92ee8a900000000000000000000000000000000000000000000000000000000815260040160405180910390fd5b67ffffffffffffffff80168160000160009054906101000a900467ffffffffffffffff1667ffffffffffffffff16146101255767ffffffffffffffff8160000160006101000a81548167ffffffffffffffff021916908367ffffffffffffffff1602179055507fc7f505b2f371ae2175ee4913f4499e1f2633a7b5936321eed1cdaeb6115181d267ffffffffffffffff60405161011c9190610173565b60405180910390a15b50565b60007ff0c57e16840df040f15088dc2f81fe391c3923bec73e23a9662efc9c229c6a00905090565b600067ffffffffffffffff82169050919050565b61016d81610150565b82525050565b60006020820190506101886000830184610164565b92915050565b610eb98061019d6000396000f3fe6080604052600436106100555760003560e01c806306fdde031461005a5780633ccfd60b146100855780637ab4339d1461009c5780638da5cb5b146100c5578063de2ed893146100f0578063ed88c68e1461011b575b600080fd5b34801561006657600080fd5b5061006f610125565b60405161007c919061069c565b60405180910390f35b34801561009157600080fd5b5061009a6101b3565b005b3480156100a857600080fd5b506100c360048036038101906100be9190610865565b61034c565b005b3480156100d157600080fd5b506100da610523565b6040516100e791906108d0565b60405180910390f35b3480156100fc57600080fd5b50610105610547565b6040516101129190610904565b60405180910390f35b61012361054d565b005b600180546101329061094e565b80601f016020809104026020016040519081016040528092919081815260200182805461015e9061094e565b80156101ab5780601f10610180576101008083540402835291602001916101ab565b820191906000526020600020905b81548152906001019060200180831161018e57829003601f168201915b505050505081565b60008054906101000a900473ffffffffffffffffffffffffffffffffffffffff1673ffffffffffffffffffffffffffffffffffffffff163373ffffffffffffffffffffffffffffffffffffffff1614610241576040517f08c379a0000000000000000000000000000000000000000000000000000000008152600401610238906109f1565b60405180910390fd5b600047905060008111610289576040517f08c379a000000000000000000000000000000000000000000000000000000000815260040161028090610a5d565b60405180910390fd5b60008054906101000a900473ffffffffffffffffffffffffffffffffffffffff1673ffffffffffffffffffffffffffffffffffffffff166108fc829081150290604051600060405180830381858888f193505050501580156102ef573d6000803e3d6000fd5b507feaff4b37086828766ad3268786972c0cd24259d4c87a80f9d3963a3c3d999b0d60008054906101000a900473ffffffffffffffffffffffffffffffffffffffff1682604051610341929190610a7d565b60405180910390a150565b60006103566105e4565b905060008160000160089054906101000a900460ff1615905060008260000160009054906101000a900467ffffffffffffffff1690506000808267ffffffffffffffff161480156103a45750825b9050600060018367ffffffffffffffff161480156103d9575060003073ffffffffffffffffffffffffffffffffffffffff163b145b9050811580156103e7575080155b1561041e576040517ff92ee8a900000000000000000000000000000000000000000000000000000000815260040160405180910390fd5b60018560000160006101000a81548167ffffffffffffffff021916908367ffffffffffffffff160217905550831561046e5760018560000160086101000a81548160ff0219169083151502179055505b866001908161047d9190610c52565b50856000806101000a81548173ffffffffffffffffffffffffffffffffffffffff021916908373ffffffffffffffffffffffffffffffffffffffff160217905550831561051a5760008560000160086101000a81548160ff0219169083151502179055507fc7f505b2f371ae2175ee4913f4499e1f2633a7b5936321eed1cdaeb6115181d260016040516105119190610d73565b60405180910390a15b50505050505050565b60008054906101000a900473ffffffffffffffffffffffffffffffffffffffff1681565b60025481565b60003411610590576040517f08c379a000000000000000000000000000000000000000000000000000000000815260040161058790610e00565b60405180910390fd5b34600260008282546105a29190610e4f565b925050819055507f264f630d9efa0d07053a31163641d9fcc0adafc9d9e76f1c37c2ce3a558d2c5233346040516105da929190610a7d565b60405180910390a1565b60007ff0c57e16840df040f15088dc2f81fe391c3923bec73e23a9662efc9c229c6a00905090565b600081519050919050565b600082825260208201905092915050565b60005b8381101561064657808201518184015260208101905061062b565b60008484015250505050565b6000601f19601f8301169050919050565b600061066e8261060c565b6106788185610617565b9350610688818560208601610628565b61069181610652565b840191505092915050565b600060208201905081810360008301526106b68184610663565b905092915050565b6000604051905090565b600080fd5b600080fd5b600080fd5b600080fd5b7f4e487b7100000000000000000000000000000000000000000000000000000000600052604160045260246000fd5b61071482610652565b810181811067ffffffffffffffff82111715610733576107326106dc565b5b80604052505050565b60006107466106be565b9050610752828261070b565b919050565b600067ffffffffffffffff821115610772576107716106dc565b5b61077b82610652565b9050602081019050919050565b82818337600083830152505050565b60006107aa6107a584610757565b61073c565b9050828152602081018484840111156107c6576107c56106d7565b5b6107d1848285610788565b509392505050565b600082601f8301126107ee576107ed6106d2565b5b81356107fe848260208601610797565b91505092915050565b600073ffffffffffffffffffffffffffffffffffffffff82169050919050565b600061083282610807565b9050919050565b61084281610827565b811461084d57600080fd5b50565b60008135905061085f81610839565b92915050565b6000806040838503121561087c5761087b6106c8565b5b600083013567ffffffffffffffff81111561089a576108996106cd565b5b6108a6858286016107d9565b92505060206108b785828601610850565b9150509250929050565b6108ca81610827565b82525050565b60006020820190506108e560008301846108c1565b92915050565b6000819050919050565b6108fe816108eb565b82525050565b600060208201905061091960008301846108f5565b92915050565b7f4e487b7100000000000000000000000000000000000000000000000000000000600052602260045260246000fd5b6000600282049050600182168061096657607f821691505b6020821081036109795761097861091f565b5b50919050565b7f4f6e6c7920746865206f776e65722063616e2077697468647261772066756e6460008201527f732e000000000000000000000000000000000000000000000000000000000000602082015250565b60006109db602283610617565b91506109e68261097f565b604082019050919050565b60006020820190508181036000830152610a0a816109ce565b9050919050565b7f4e6f2066756e647320746f207769746864726177000000000000000000000000600082015250565b6000610a47601483610617565b9150610a5282610a11565b602082019050919050565b60006020820190508181036000830152610a7681610a3a565b9050919050565b6000604082019050610a9260008301856108c1565b610a9f60208301846108f5565b9392505050565b60008190508160005260206000209050919050565b60006020601f8301049050919050565b600082821b905092915050565b600060088302610b087fffffffffffffffffffffffffffffffffffffffffffffffffffffffffffffffff82610acb565b610b128683610acb565b95508019841693508086168417925050509392505050565b6000819050919050565b6000610b4f610b4a610b45846108eb565b610b2a565b6108eb565b9050919050565b6000819050919050565b610b6983610b34565b610b7d610b7582610b56565b848454610ad8565b825550505050565b600090565b610b92610b85565b610b9d818484610b60565b505050565b5b81811015610bc157610bb6600082610b8a565b600181019050610ba3565b5050565b601f821115610c0657610bd781610aa6565b610be084610abb565b81016020851015610bef578190505b610c03610bfb85610abb565b830182610ba2565b50505b505050565b600082821c905092915050565b6000610c2960001984600802610c0b565b1980831691505092915050565b6000610c428383610c18565b9150826002028217905092915050565b610c5b8261060c565b67ffffffffffffffff811115610c7457610c736106dc565b5b610c7e825461094e565b610c89828285610bc5565b600060209050601f831160018114610cbc5760008415610caa578287015190505b610cb48582610c36565b865550610d1c565b601f198416610cca86610aa6565b60005b82811015610cf257848901518255600182019150602085019450602081019050610ccd565b86831015610d0f5784890151610d0b601f891682610c18565b8355505b6001600288020188555050505b505050505050565b6000819050919050565b600067ffffffffffffffff82169050919050565b6000610d5d610d58610d5384610d24565b610b2a565b610d2e565b9050919050565b610d6d81610d42565b82525050565b6000602082019050610d886000830184610d64565b92915050565b7f446f6e6174696f6e20616d6f756e74206d75737420626520677265617465722060008201527f7468616e20302e00000000000000000000000000000000000000000000000000602082015250565b6000610dea602783610617565b9150610df582610d8e565b604082019050919050565b60006020820190508181036000830152610e1981610ddd565b9050919050565b7f4e487b7100000000000000000000000000000000000000000000000000000000600052601160045260246000fd5b6000610e5a826108eb565b9150610e65836108eb565b9250828201905080821115610e7d57610e7c610e20565b5b9291505056fea26469706673582212208d1f9cf8efc18ef4abe457c05007392af66620475b044277d8ad4b52b67876eb64736f6c634300081c0033",
  "linkReferences": {},
  "deployedLinkReferences": {}
}