{
  "_format": "hh-sol-artifact-1",
  "contractName": "DonationCampaign",
  "sourceName": "contracts/DonationCampaign.sol",
  "abi": [
    {
      "inputs": [],
      "stateMutability": "nonpayable",
      "type": "constructor"
    },
    {
      "inputs": [],
      "name": "InvalidInitialization",
      "type": "error"
    },
    {
      "inputs": [],
      "name": "NotInitializing",
      "type": "error"
    },
    {
      "anonymous": false,
      "inputs": [
        {
          "indexed": false,
          "internalType": "address",
          "name": "donor",
          "type": "address"
        },
        {
          "indexed": false,
          "internalType": "uint256",
          "name": "amount",
          "type": "uint256"
        }
      ],
      "name": "DonationReceived",
      "type": "event"
    },
    {
      "anonymous": false,
      "inputs": [
        {
          "indexed": false,
          "internalType": "uint64",
          "name": "version",
          "type": "uint64"
        }
      ],
      "name": "Initialized",
      "type": "event"
    },
    {
      "inputs": [],
      "name": "donate",
      "outputs": [],
      "stateMutability": "payable",
      "type": "function"
    },
    {
      "inputs": [
        {
          "internalType": "string",
          "name": "_name",
          "type": "string"
        },
        {
          "internalType": "address",
          "name": "_owner",
          "type": "address"
        }
      ],
      "name": "initialize",
      "outputs": [],
      "stateMutability": "nonpayable",
      "type": "function"
    },
    {
      "inputs": [],
      "name": "name",
      "outputs": [
        {
          "internalType": "string",
          "name": "",
          "type": "string"
        }
      ],
      "stateMutability": "view",
      "type": "function"
    },
    {
      "inputs": [],
      "name": "owner",
      "outputs": [
        {
          "internalType": "address",
          "name": "",
          "type": "address"
        }
      ],
      "stateMutability": "view",
      "type": "function"
    },
    {
      "inputs": [],
      "name": "totalDonations",
      "outputs": [
        {
          "internalType": "uint256",
          "name": "",
          "type": "uint256"
        }
      ],
      "stateMutability": "view",
      "type": "function"
    },
    {
      "inputs": [],
      "name": "withdraw",
      "outputs": [],
      "stateMutability": "nonpayable",
      "type": "function"
    }
  ],
  "bytecode": "0x608060405234801561001057600080fd5b5061001f61002460201b60201c565b61018e565b600061003461012860201b60201c565b90508060000160089054906101000a900460ff161561007f576040517ff92ee8a900000000000000000000000000000000000000000000000000000000815260040160405180910390fd5b67ffffffffffffffff80168160000160009054906101000a900467ffffffffffffffff1667ffffffffffffffff16146101255767ffffffffffffffff8160000160006101000a81548167ffffffffffffffff021916908367ffffffffffffffff1602179055507fc7f505b2f371ae2175ee4913f4499e1f2633a7b5936321eed1cdaeb6115181d267ffffffffffffffff60405161011c9190610173565b60405180910390a15b50565b60007ff0c57e16840df040f15088dc2f81fe391c3923bec73e23a9662efc9c229c6a00905090565b600067ffffffffffffffff82169050919050565b61016d81610150565b82525050565b60006020820190506101886000830184610164565b92915050565b610dab8061019d6000396000f3fe6080604052600436106100555760003560e01c806306fdde031461005a5780633ccfd60b146100855780637ab4339d1461009c5780638da5cb5b146100c5578063de2ed893146100f0578063ed88c68e1461011b575b600080fd5b34801561006657600080fd5b5061006f610125565b60405161007c91906105fa565b60405180910390f35b34801561009157600080fd5b5061009a6101b3565b005b3480156100a857600080fd5b506100c360048036038101906100be91906107c3565b6102aa565b005b3480156100d157600080fd5b506100da610481565b6040516100e7919061082e565b60405180910390f35b3480156100fc57600080fd5b506101056104a5565b6040516101129190610862565b60405180910390f35b6101236104ab565b005b60018054610132906108ac565b80601f016020809104026020016040519081016040528092919081815260200182805461015e906108ac565b80156101ab5780601f10610180576101008083540402835291602001916101ab565b820191906000526020600020905b81548152906001019060200180831161018e57829003601f168201915b505050505081565b60008054906101000a900473ffffffffffffffffffffffffffffffffffffffff1673ffffffffffffffffffffffffffffffffffffffff163373ffffffffffffffffffffffffffffffffffffffff1614610241576040517f08c379a00000000000000000000000000000000000000000000000000000000081526004016102389061094f565b60405180910390fd5b60008054906101000a900473ffffffffffffffffffffffffffffffffffffffff1673ffffffffffffffffffffffffffffffffffffffff166108fc479081150290604051600060405180830381858888f193505050501580156102a7573d6000803e3d6000fd5b50565b60006102b4610542565b905060008160000160089054906101000a900460ff1615905060008260000160009054906101000a900467ffffffffffffffff1690506000808267ffffffffffffffff161480156103025750825b9050600060018367ffffffffffffffff16148015610337575060003073ffffffffffffffffffffffffffffffffffffffff163b145b905081158015610345575080155b1561037c576040517ff92ee8a900000000000000000000000000000000000000000000000000000000815260040160405180910390fd5b60018560000160006101000a81548167ffffffffffffffff021916908367ffffffffffffffff16021790555083156103cc5760018560000160086101000a81548160ff0219169083151502179055505b86600190816103db9190610b1b565b50856000806101000a81548173ffffffffffffffffffffffffffffffffffffffff021916908373ffffffffffffffffffffffffffffffffffffffff16021790555083156104785760008560000160086101000a81548160ff0219169083151502179055507fc7f505b2f371ae2175ee4913f4499e1f2633a7b5936321eed1cdaeb6115181d2600160405161046f9190610c3c565b60405180910390a15b50505050505050565b60008054906101000a900473ffffffffffffffffffffffffffffffffffffffff1681565b60025481565b600034116104ee576040517f08c379a00000000000000000000000000000000000000000000000000000000081526004016104e590610cc9565b60405180910390fd5b34600260008282546105009190610d18565b925050819055507f264f630d9efa0d07053a31163641d9fcc0adafc9d9e76f1c37c2ce3a558d2c523334604051610538929190610d4c565b60405180910390a1565b60007ff0c57e16840df040f15088dc2f81fe391c3923bec73e23a9662efc9c229c6a00905090565b600081519050919050565b600082825260208201905092915050565b60005b838110156105a4578082015181840152602081019050610589565b60008484015250505050565b6000601f19601f8301169050919050565b60006105cc8261056a565b6105d68185610575565b93506105e6818560208601610586565b6105ef816105b0565b840191505092915050565b6000602082019050818103600083015261061481846105c1565b905092915050565b6000604051905090565b600080fd5b600080fd5b600080fd5b600080fd5b7f4e487b7100000000000000000000000000000000000000000000000000000000600052604160045260246000fd5b610672826105b0565b810181811067ffffffffffffffff821117156106915761069061063a565b5b80604052505050565b60006106a461061c565b90506106b08282610669565b919050565b600067ffffffffffffffff8211156106d0576106cf61063a565b5b6106d9826105b0565b9050602081019050919050565b82818337600083830152505050565b6000610708610703846106b5565b61069a565b90508281526020810184848401111561072457610723610635565b5b61072f8482856106e6565b509392505050565b600082601f83011261074c5761074b610630565b5b813561075c8482602086016106f5565b91505092915050565b600073ffffffffffffffffffffffffffffffffffffffff82169050919050565b600061079082610765565b9050919050565b6107a081610785565b81146107ab57600080fd5b50565b6000813590506107bd81610797565b92915050565b600080604083850312156107da576107d9610626565b5b600083013567ffffffffffffffff8111156107f8576107f761062b565b5b61080485828601610737565b9250506020610815858286016107ae565b9150509250929050565b61082881610785565b82525050565b6000602082019050610843600083018461081f565b92915050565b6000819050919050565b61085c81610849565b82525050565b60006020820190506108776000830184610853565b92915050565b7f4e487b7100000000000000000000000000000000000000000000000000000000600052602260045260246000fd5b600060028204905060018216806108c457607f821691505b6020821081036108d7576108d661087d565b5b50919050565b7f4f6e6c7920746865206f776e65722063616e2077697468647261772066756e6460008201527f732e000000000000000000000000000000000000000000000000000000000000602082015250565b6000610939602283610575565b9150610944826108dd565b604082019050919050565b600060208201905081810360008301526109688161092c565b9050919050565b60008190508160005260206000209050919050565b60006020601f8301049050919050565b600082821b905092915050565b6000600883026109d17fffffffffffffffffffffffffffffffffffffffffffffffffffffffffffffffff82610994565b6109db8683610994565b95508019841693508086168417925050509392505050565b6000819050919050565b6000610a18610a13610a0e84610849565b6109f3565b610849565b9050919050565b6000819050919050565b610a32836109fd565b610a46610a3e82610a1f565b8484546109a1565b825550505050565b600090565b610a5b610a4e565b610a66818484610a29565b505050565b5b81811015610a8a57610a7f600082610a53565b600181019050610a6c565b5050565b601f821115610acf57610aa08161096f565b610aa984610984565b81016020851015610ab8578190505b610acc610ac485610984565b830182610a6b565b50505b505050565b600082821c905092915050565b6000610af260001984600802610ad4565b1980831691505092915050565b6000610b0b8383610ae1565b9150826002028217905092915050565b610b248261056a565b67ffffffffffffffff811115610b3d57610b3c61063a565b5b610b4782546108ac565b610b52828285610a8e565b600060209050601f831160018114610b855760008415610b73578287015190505b610b7d8582610aff565b865550610be5565b601f198416610b938661096f565b60005b82811015610bbb57848901518255600182019150602085019450602081019050610b96565b86831015610bd85784890151610bd4601f891682610ae1565b8355505b6001600288020188555050505b505050505050565b6000819050919050565b600067ffffffffffffffff82169050919050565b6000610c26610c21610c1c84610bed565b6109f3565b610bf7565b9050919050565b610c3681610c0b565b82525050565b6000602082019050610c516000830184610c2d565b92915050565b7f446f6e6174696f6e20616d6f756e74206d75737420626520677265617465722060008201527f7468616e20302e00000000000000000000000000000000000000000000000000602082015250565b6000610cb3602783610575565b9150610cbe82610c57565b604082019050919050565b60006020820190508181036000830152610ce281610ca6565b9050919050565b7f4e487b7100000000000000000000000000000000000000000000000000000000600052601160045260246000fd5b6000610d2382610849565b9150610d2e83610849565b9250828201905080821115610d4657610d45610ce9565b5b92915050565b6000604082019050610d61600083018561081f565b610d6e6020830184610853565b939250505056fea2646970667358221220fa96b69a5224c17abc092913a5b01c99acdbf2c2f69edd52c366b8f0ccc187dd64736f6c634300081c0033",
  "linkReferences": {},
  "deployedLinkReferences": {}
}