{
  "_format": "hh-sol-artifact-1",
  "contractName": "DonationFactory",
  "sourceName": "contracts/DonationFactory.sol",
  "abi": [
    {
      "inputs": [],
      "stateMutability": "nonpayable",
      "type": "constructor"
    },
    {
      "inputs": [],
      "name": "FailedDeployment",
      "type": "error"
    },
    {
      "inputs": [
        {
          "internalType": "uint256",
          "name": "balance",
          "type": "uint256"
        },
        {
          "internalType": "uint256",
          "name": "needed",
          "type": "uint256"
        }
      ],
      "name": "InsufficientBalance",
      "type": "error"
    },
    {
      "anonymous": false,
      "inputs": [
        {
          "indexed": true,
          "internalType": "address",
          "name": "clone",
          "type": "address"
        },
        {
          "indexed": false,
          "internalType": "string",
          "name": "name",
          "type": "string"
        },
        {
          "indexed": false,
          "internalType": "address",
          "name": "owner",
          "type": "address"
        }
      ],
      "name": "CampaignCreated",
      "type": "event"
    },
    {
      "inputs": [],
      "name": "campaignImplementation",
      "outputs": [
        {
          "internalType": "address",
          "name": "",
          "type": "address"
        }
      ],
      "stateMutability": "view",
      "type": "function"
    },
    {
      "inputs": [
        {
          "internalType": "uint256",
          "name": "",
          "type": "uint256"
        }
      ],
      "name": "campaigns",
      "outputs": [
        {
          "internalType": "address",
          "name": "",
          "type": "address"
        }
      ],
      "stateMutability": "view",
      "type": "function"
    },
    {
      "inputs": [
        {
          "internalType": "string",
          "name": "name",
          "type": "string"
        }
      ],
      "name": "createCampaign",
      "outputs": [],
      "stateMutability": "nonpayable",
      "type": "function"
    },
    {
      "inputs": [],
      "name": "getCampaigns",
      "outputs": [
        {
          "internalType": "address[]",
          "name": "",
          "type": "address[]"
        }
      ],
      "stateMutability": "view",
      "type": "function"
    }
  ],
  "bytecode": "0x60a0604052348015600f57600080fd5b50604051601a90606d565b604051809103906000f0801580156035573d6000803e3d6000fd5b5073ffffffffffffffffffffffffffffffffffffffff1660808173ffffffffffffffffffffffffffffffffffffffff1681525050607a565b6110568061092283390190565b60805161088661009c6000396000818161011a01526101d101526108866000f3fe608060405234801561001057600080fd5b506004361061004c5760003560e01c8063141961bc1461005157806362a6e06514610081578063a6b036331461009f578063fdbf9ff1146100bd575b600080fd5b61006b60048036038101906100669190610471565b6100d9565b60405161007891906104df565b60405180910390f35b610089610118565b60405161009691906104df565b60405180910390f35b6100a761013c565b6040516100b491906105b8565b60405180910390f35b6100d760048036038101906100d29190610720565b6101ca565b005b600081815481106100e957600080fd5b906000526020600020016000915054906101000a900473ffffffffffffffffffffffffffffffffffffffff1681565b7f000000000000000000000000000000000000000000000000000000000000000081565b606060008054806020026020016040519081016040528092919081815260200182805480156101c057602002820191906000526020600020905b8160009054906101000a900473ffffffffffffffffffffffffffffffffffffffff1673ffffffffffffffffffffffffffffffffffffffff1681526020019060010190808311610176575b5050505050905090565b60006101f57f000000000000000000000000000000000000000000000000000000000000000061031b565b90508073ffffffffffffffffffffffffffffffffffffffff16637ab4339d83336040518363ffffffff1660e01b81526004016102329291906107e8565b600060405180830381600087803b15801561024c57600080fd5b505af1158015610260573d6000803e3d6000fd5b505050506000819080600181540180825580915050600190039060005260206000200160009091909190916101000a81548173ffffffffffffffffffffffffffffffffffffffff021916908373ffffffffffffffffffffffffffffffffffffffff1602179055508073ffffffffffffffffffffffffffffffffffffffff167f40c8f8d2aeb66a06c458c5019e334d9b3697dcef44baa17efe662d405ad99ab2833360405161030f9291906107e8565b60405180910390a25050565b600061032882600061032f565b9050919050565b6000814710156103785747826040517fcf47918100000000000000000000000000000000000000000000000000000000815260040161036f929190610827565b60405180910390fd5b763d602d80600a3d3981f3363d3d373d3d3d363d730000008360601b60e81c176000526e5af43d82803e903d91602b57fd5bf38360781b176020526037600983f09050600073ffffffffffffffffffffffffffffffffffffffff168173ffffffffffffffffffffffffffffffffffffffff1603610421576040517fb06ebf3d00000000000000000000000000000000000000000000000000000000815260040160405180910390fd5b92915050565b6000604051905090565b600080fd5b600080fd5b6000819050919050565b61044e8161043b565b811461045957600080fd5b50565b60008135905061046b81610445565b92915050565b60006020828403121561048757610486610431565b5b60006104958482850161045c565b91505092915050565b600073ffffffffffffffffffffffffffffffffffffffff82169050919050565b60006104c98261049e565b9050919050565b6104d9816104be565b82525050565b60006020820190506104f460008301846104d0565b92915050565b600081519050919050565b600082825260208201905092915050565b6000819050602082019050919050565b61052f816104be565b82525050565b60006105418383610526565b60208301905092915050565b6000602082019050919050565b6000610565826104fa565b61056f8185610505565b935061057a83610516565b8060005b838110156105ab5781516105928882610535565b975061059d8361054d565b92505060018101905061057e565b5085935050505092915050565b600060208201905081810360008301526105d2818461055a565b905092915050565b600080fd5b600080fd5b6000601f19601f8301169050919050565b7f4e487b7100000000000000000000000000000000000000000000000000000000600052604160045260246000fd5b61062d826105e4565b810181811067ffffffffffffffff8211171561064c5761064b6105f5565b5b80604052505050565b600061065f610427565b905061066b8282610624565b919050565b600067ffffffffffffffff82111561068b5761068a6105f5565b5b610694826105e4565b9050602081019050919050565b82818337600083830152505050565b60006106c36106be84610670565b610655565b9050828152602081018484840111156106df576106de6105df565b5b6106ea8482856106a1565b509392505050565b600082601f830112610707576107066105da565b5b81356107178482602086016106b0565b91505092915050565b60006020828403121561073657610735610431565b5b600082013567ffffffffffffffff81111561075457610753610436565b5b610760848285016106f2565b91505092915050565b600081519050919050565b600082825260208201905092915050565b60005b838110156107a3578082015181840152602081019050610788565b60008484015250505050565b60006107ba82610769565b6107c48185610774565b93506107d4818560208601610785565b6107dd816105e4565b840191505092915050565b6000604082019050818103600083015261080281856107af565b905061081160208301846104d0565b9392505050565b6108218161043b565b82525050565b600060408201905061083c6000830185610818565b6108496020830184610818565b939250505056fea2646970667358221220d1ccc1934ff9147edc44dab4ca2550cdde48e0903afae073065784f4645bb1de64736f6c634300081c0033608060405234801561001057600080fd5b5061001f61002460201b60201c565b61018e565b600061003461012860201b60201c565b90508060000160089054906101000a900460ff161561007f576040517ff92ee8a900000000000000000000000000000000000000000000000000000000815260040160405180910390fd5b67ffffffffffffffff80168160000160009054906101000a900467ffffffffffffffff1667ffffffffffffffff16146101255767ffffffffffffffff8160000160006101000a81548167ffffffffffffffff021916908367ffffffffffffffff1602179055507fc7f505b2f371ae2175ee4913f4499e1f2633a7b5936321eed1cdaeb6115181d267ffffffffffffffff60405161011c9190610173565b60405180910390a15b50565b60007ff0c57e16840df040f15088dc2f81fe391c3923bec73e23a9662efc9c229c6a00905090565b600067ffffffffffffffff82169050919050565b61016d81610150565b82525050565b60006020820190506101886000830184610164565b92915050565b610eb98061019d6000396000f3fe6080604052600436106100555760003560e01c806306fdde031461005a5780633ccfd60b146100855780637ab4339d1461009c5780638da5cb5b146100c5578063de2ed893146100f0578063ed88c68e1461011b575b600080fd5b34801561006657600080fd5b5061006f610125565b60405161007c919061069c565b60405180910390f35b34801561009157600080fd5b5061009a6101b3565b005b3480156100a857600080fd5b506100c360048036038101906100be9190610865565b61034c565b005b3480156100d157600080fd5b506100da610523565b6040516100e791906108d0565b60405180910390f35b3480156100fc57600080fd5b50610105610547565b6040516101129190610904565b60405180910390f35b61012361054d565b005b600180546101329061094e565b80601f016020809104026020016040519081016040528092919081815260200182805461015e9061094e565b80156101ab5780601f10610180576101008083540402835291602001916101ab565b820191906000526020600020905b81548152906001019060200180831161018e57829003601f168201915b505050505081565b60008054906101000a900473ffffffffffffffffffffffffffffffffffffffff1673ffffffffffffffffffffffffffffffffffffffff163373ffffffffffffffffffffffffffffffffffffffff1614610241576040517f08c379a0000000000000000000000000000000000000000000000000000000008152600401610238906109f1565b60405180910390fd5b600047905060008111610289576040517f08c379a000000000000000000000000000000000000000000000000000000000815260040161028090610a5d565b60405180910390fd5b60008054906101000a900473ffffffffffffffffffffffffffffffffffffffff1673ffffffffffffffffffffffffffffffffffffffff166108fc829081150290604051600060405180830381858888f193505050501580156102ef573d6000803e3d6000fd5b507feaff4b37086828766ad3268786972c0cd24259d4c87a80f9d3963a3c3d999b0d60008054906101000a900473ffffffffffffffffffffffffffffffffffffffff1682604051610341929190610a7d565b60405180910390a150565b60006103566105e4565b905060008160000160089054906101000a900460ff1615905060008260000160009054906101000a900467ffffffffffffffff1690506000808267ffffffffffffffff161480156103a45750825b9050600060018367ffffffffffffffff161480156103d9575060003073ffffffffffffffffffffffffffffffffffffffff163b145b9050811580156103e7575080155b1561041e576040517ff92ee8a900000000000000000000000000000000000000000000000000000000815260040160405180910390fd5b60018560000160006101000a81548167ffffffffffffffff021916908367ffffffffffffffff160217905550831561046e5760018560000160086101000a81548160ff0219169083151502179055505b866001908161047d9190610c52565b50856000806101000a81548173ffffffffffffffffffffffffffffffffffffffff021916908373ffffffffffffffffffffffffffffffffffffffff160217905550831561051a5760008560000160086101000a81548160ff0219169083151502179055507fc7f505b2f371ae2175ee4913f4499e1f2633a7b5936321eed1cdaeb6115181d260016040516105119190610d73565b60405180910390a15b50505050505050565b60008054906101000a900473ffffffffffffffffffffffffffffffffffffffff1681565b60025481565b60003411610590576040517f08c379a000000000000000000000000000000000000000000000000000000000815260040161058790610e00565b60405180910390fd5b34600260008282546105a29190610e4f565b925050819055507f264f630d9efa0d07053a31163641d9fcc0adafc9d9e76f1c37c2ce3a558d2c5233346040516105da929190610a7d565b60405180910390a1565b60007ff0c57e16840df040f15088dc2f81fe391c3923bec73e23a9662efc9c229c6a00905090565b600081519050919050565b600082825260208201905092915050565b60005b8381101561064657808201518184015260208101905061062b565b60008484015250505050565b6000601f19601f8301169050919050565b600061066e8261060c565b6106788185610617565b9350610688818560208601610628565b61069181610652565b840191505092915050565b600060208201905081810360008301526106b68184610663565b905092915050565b6000604051905090565b600080fd5b600080fd5b600080fd5b600080fd5b7f4e487b7100000000000000000000000000000000000000000000000000000000600052604160045260246000fd5b61071482610652565b810181811067ffffffffffffffff82111715610733576107326106dc565b5b80604052505050565b60006107466106be565b9050610752828261070b565b919050565b600067ffffffffffffffff821115610772576107716106dc565b5b61077b82610652565b9050602081019050919050565b82818337600083830152505050565b60006107aa6107a584610757565b61073c565b9050828152602081018484840111156107c6576107c56106d7565b5b6107d1848285610788565b509392505050565b600082601f8301126107ee576107ed6106d2565b5b81356107fe848260208601610797565b91505092915050565b600073ffffffffffffffffffffffffffffffffffffffff82169050919050565b600061083282610807565b9050919050565b61084281610827565b811461084d57600080fd5b50565b60008135905061085f81610839565b92915050565b6000806040838503121561087c5761087b6106c8565b5b600083013567ffffffffffffffff81111561089a576108996106cd565b5b6108a6858286016107d9565b92505060206108b785828601610850565b9150509250929050565b6108ca81610827565b82525050565b60006020820190506108e560008301846108c1565b92915050565b6000819050919050565b6108fe816108eb565b82525050565b600060208201905061091960008301846108f5565b92915050565b7f4e487b7100000000000000000000000000000000000000000000000000000000600052602260045260246000fd5b6000600282049050600182168061096657607f821691505b6020821081036109795761097861091f565b5b50919050565b7f4f6e6c7920746865206f776e65722063616e2077697468647261772066756e6460008201527f732e000000000000000000000000000000000000000000000000000000000000602082015250565b60006109db602283610617565b91506109e68261097f565b604082019050919050565b60006020820190508181036000830152610a0a816109ce565b9050919050565b7f4e6f2066756e647320746f207769746864726177000000000000000000000000600082015250565b6000610a47601483610617565b9150610a5282610a11565b602082019050919050565b60006020820190508181036000830152610a7681610a3a565b9050919050565b6000604082019050610a9260008301856108c1565b610a9f60208301846108f5565b9392505050565b60008190508160005260206000209050919050565b60006020601f8301049050919050565b600082821b905092915050565b600060088302610b087fffffffffffffffffffffffffffffffffffffffffffffffffffffffffffffffff82610acb565b610b128683610acb565b95508019841693508086168417925050509392505050565b6000819050919050565b6000610b4f610b4a610b45846108eb565b610b2a565b6108eb565b9050919050565b6000819050919050565b610b6983610b34565b610b7d610b7582610b56565b848454610ad8565b825550505050565b600090565b610b92610b85565b610b9d818484610b60565b505050565b5b81811015610bc157610bb6600082610b8a565b600181019050610ba3565b5050565b601f821115610c0657610bd781610aa6565b610be084610abb565b81016020851015610bef578190505b610c03610bfb85610abb565b830182610ba2565b50505b505050565b600082821c905092915050565b6000610c2960001984600802610c0b565b1980831691505092915050565b6000610c428383610c18565b9150826002028217905092915050565b610c5b8261060c565b67ffffffffffffffff811115610c7457610c736106dc565b5b610c7e825461094e565b610c89828285610bc5565b600060209050601f831160018114610cbc5760008415610caa578287015190505b610cb48582610c36565b865550610d1c565b601f198416610cca86610aa6565b60005b82811015610cf257848901518255600182019150602085019450602081019050610ccd565b86831015610d0f5784890151610d0b601f891682610c18565b8355505b6001600288020188555050505b505050505050565b6000819050919050565b600067ffffffffffffffff82169050919050565b6000610d5d610d58610d5384610d24565b610b2a565b610d2e565b9050919050565b610d6d81610d42565b82525050565b6000602082019050610d886000830184610d64565b92915050565b7f446f6e6174696f6e20616d6f756e74206d75737420626520677265617465722060008201527f7468616e20302e00000000000000000000000000000000000000000000000000602082015250565b6000610dea602783610617565b9150610df582610d8e565b604082019050919050565b60006020820190508181036000830152610e1981610ddd565b9050919050565b7f4e487b7100000000000000000000000000000000000000000000000000000000600052601160045260246000fd5b6000610e5a826108eb565b9150610e65836108eb565b9250828201905080821115610e7d57610e7c610e20565b5b9291505056fea26469706673582212208d1f9cf8efc18ef4abe457c05007392af66620475b044277d8ad4b52b67876eb64736f6c634300081c0033",
  "linkReferences": {},
  "deployedLinkReferences": {}
}